{
  "address": "0xE20a0e016c84C9683B5F258f3ECCb0B365ffB8Fa",
  "abi": [
    {
      "inputs": [
        {
          "internalType": "address",
          "name": "initialOwner",
          "type": "address"
        },
        {
          "internalType": "address",
          "name": "batchMinterAddress_",
          "type": "address"
        },
        {
          "internalType": "address",
          "name": "pauseAddress_",
          "type": "address"
        }
      ],
      "stateMutability": "nonpayable",
      "type": "constructor"
    },
    {
      "inputs": [],
      "name": "ArrayLengthMismatch",
      "type": "error"
    },
    {
      "inputs": [],
      "name": "BatchMintAmountExceedsLimit",
      "type": "error"
    },
    {
      "inputs": [],
      "name": "BatchMintCooldownNotExpired",
      "type": "error"
    },
    {
      "inputs": [],
      "name": "BatchMintLimitCannotBeZero",
      "type": "error"
    },
    {
      "inputs": [],
      "name": "BatchMintingPeriodCompletionPaused",
      "type": "error"
    },
    {
      "inputs": [],
      "name": "BatchSizeTooLarge",
      "type": "error"
    },
    {
      "inputs": [],
      "name": "CannotMintToZeroAddress",
      "type": "error"
    },
    {
      "inputs": [],
      "name": "CannotMintWhilePaused",
      "type": "error"
    },
    {
      "inputs": [],
      "name": "CannotMintZeroAmount",
      "type": "error"
    },
    {
      "inputs": [],
      "name": "CannotSetZeroAddress",
      "type": "error"
    },
    {
      "inputs": [
        {
          "internalType": "address",
          "name": "spender",
          "type": "address"
        },
        {
          "internalType": "uint256",
          "name": "allowance",
          "type": "uint256"
        },
        {
          "internalType": "uint256",
          "name": "needed",
          "type": "uint256"
        }
      ],
      "name": "ERC20InsufficientAllowance",
      "type": "error"
    },
    {
      "inputs": [
        {
          "internalType": "address",
          "name": "sender",
          "type": "address"
        },
        {
          "internalType": "uint256",
          "name": "balance",
          "type": "uint256"
        },
        {
          "internalType": "uint256",
          "name": "needed",
          "type": "uint256"
        }
      ],
      "name": "ERC20InsufficientBalance",
      "type": "error"
    },
    {
      "inputs": [
        {
          "internalType": "address",
          "name": "approver",
          "type": "address"
        }
      ],
      "name": "ERC20InvalidApprover",
      "type": "error"
    },
    {
      "inputs": [
        {
          "internalType": "address",
          "name": "receiver",
          "type": "address"
        }
      ],
      "name": "ERC20InvalidReceiver",
      "type": "error"
    },
    {
      "inputs": [
        {
          "internalType": "address",
          "name": "sender",
          "type": "address"
        }
      ],
      "name": "ERC20InvalidSender",
      "type": "error"
    },
    {
      "inputs": [
        {
          "internalType": "address",
          "name": "spender",
          "type": "address"
        }
      ],
      "name": "ERC20InvalidSpender",
      "type": "error"
    },
    {
      "inputs": [],
      "name": "EmptyArrays",
      "type": "error"
    },
    {
      "inputs": [],
      "name": "NoBatchMintingOccurredThisPeriod",
      "type": "error"
    },
    {
      "inputs": [
        {
          "internalType": "address",
          "name": "owner",
          "type": "address"
        }
      ],
      "name": "OwnableInvalidOwner",
      "type": "error"
    },
    {
      "inputs": [
        {
          "internalType": "address",
          "name": "account",
          "type": "address"
        }
      ],
      "name": "OwnableUnauthorizedAccount",
      "type": "error"
    },
    {
      "inputs": [],
      "name": "OwnerMintAmountExceedsLimit",
      "type": "error"
    },
    {
      "inputs": [],
      "name": "OwnerMintCooldownNotExpired",
      "type": "error"
    },
    {
      "inputs": [],
      "name": "UnauthorizedBatchMinter",
      "type": "error"
    },
    {
      "inputs": [],
      "name": "UnauthorizedPause",
      "type": "error"
    },
    {
      "anonymous": false,
      "inputs": [
        {
          "indexed": true,
          "internalType": "address",
          "name": "owner",
          "type": "address"
        },
        {
          "indexed": true,
          "internalType": "address",
          "name": "spender",
          "type": "address"
        },
        {
          "indexed": false,
          "internalType": "uint256",
          "name": "value",
          "type": "uint256"
        }
      ],
      "name": "Approval",
      "type": "event"
    },
    {
      "anonymous": false,
      "inputs": [
        {
          "indexed": true,
          "internalType": "address",
          "name": "user",
          "type": "address"
        },
        {
          "indexed": false,
          "internalType": "uint256",
          "name": "amount",
          "type": "uint256"
        }
      ],
      "name": "BatchMint",
      "type": "event"
    },
    {
      "anonymous": false,
      "inputs": [
        {
          "indexed": false,
          "internalType": "uint256",
          "name": "newLimit",
          "type": "uint256"
        }
      ],
      "name": "BatchMintLimitUpdated",
      "type": "event"
    },
    {
      "anonymous": false,
      "inputs": [
        {
          "indexed": false,
          "internalType": "uint256",
          "name": "timestamp",
          "type": "uint256"
        }
      ],
      "name": "BatchMintingPeriodCompleted",
      "type": "event"
    },
    {
      "anonymous": false,
      "inputs": [
        {
          "indexed": false,
          "internalType": "uint256",
          "name": "endTime",
          "type": "uint256"
        }
      ],
      "name": "MintingPaused",
      "type": "event"
    },
    {
      "anonymous": false,
      "inputs": [
        {
          "indexed": true,
          "internalType": "address",
          "name": "to",
          "type": "address"
        },
        {
          "indexed": false,
          "internalType": "uint256",
          "name": "amount",
          "type": "uint256"
        }
      ],
      "name": "OwnerMint",
      "type": "event"
    },
    {
      "anonymous": false,
      "inputs": [
        {
          "indexed": true,
          "internalType": "address",
          "name": "previousOwner",
          "type": "address"
        },
        {
          "indexed": true,
          "internalType": "address",
          "name": "newOwner",
          "type": "address"
        }
      ],
      "name": "OwnershipTransferred",
      "type": "event"
    },
    {
      "anonymous": false,
      "inputs": [
        {
          "indexed": true,
          "internalType": "address",
          "name": "from",
          "type": "address"
        },
        {
          "indexed": true,
          "internalType": "address",
          "name": "to",
          "type": "address"
        },
        {
          "indexed": false,
          "internalType": "uint256",
          "name": "value",
          "type": "uint256"
        }
      ],
      "name": "Transfer",
      "type": "event"
    },
    {
      "inputs": [],
      "name": "BATCH_MINT_COOLDOWN",
      "outputs": [
        {
          "internalType": "uint256",
          "name": "",
          "type": "uint256"
        }
      ],
      "stateMutability": "view",
      "type": "function"
    },
    {
      "inputs": [],
      "name": "OWNER_MINT_COOLDOWN",
      "outputs": [
        {
          "internalType": "uint256",
          "name": "",
          "type": "uint256"
        }
      ],
      "stateMutability": "view",
      "type": "function"
    },
    {
      "inputs": [],
      "name": "OWNER_MINT_LIMIT",
      "outputs": [
        {
          "internalType": "uint256",
          "name": "",
          "type": "uint256"
        }
      ],
      "stateMutability": "view",
      "type": "function"
    },
    {
      "inputs": [
        {
          "internalType": "address",
          "name": "owner",
          "type": "address"
        },
        {
          "internalType": "address",
          "name": "spender",
          "type": "address"
        }
      ],
      "name": "allowance",
      "outputs": [
        {
          "internalType": "uint256",
          "name": "",
          "type": "uint256"
        }
      ],
      "stateMutability": "view",
      "type": "function"
    },
    {
      "inputs": [
        {
          "internalType": "address",
          "name": "spender",
          "type": "address"
        },
        {
          "internalType": "uint256",
          "name": "value",
          "type": "uint256"
        }
      ],
      "name": "approve",
      "outputs": [
        {
          "internalType": "bool",
          "name": "",
          "type": "bool"
        }
      ],
      "stateMutability": "nonpayable",
      "type": "function"
    },
    {
      "inputs": [
        {
          "internalType": "address",
          "name": "account",
          "type": "address"
        }
      ],
      "name": "balanceOf",
      "outputs": [
        {
          "internalType": "uint256",
          "name": "",
          "type": "uint256"
        }
      ],
      "stateMutability": "view",
      "type": "function"
    },
    {
      "inputs": [
        {
          "internalType": "address[]",
          "name": "addresses",
          "type": "address[]"
        },
        {
          "internalType": "uint256[]",
          "name": "amounts",
          "type": "uint256[]"
        }
      ],
      "name": "batchMint",
      "outputs": [],
      "stateMutability": "nonpayable",
      "type": "function"
    },
    {
      "inputs": [],
      "name": "batchMintLimit",
      "outputs": [
        {
          "internalType": "uint256",
          "name": "",
          "type": "uint256"
        }
      ],
      "stateMutability": "view",
      "type": "function"
    },
    {
      "inputs": [],
      "name": "batchMinterAddress",
      "outputs": [
        {
          "internalType": "address",
          "name": "",
          "type": "address"
        }
      ],
      "stateMutability": "view",
      "type": "function"
    },
    {
      "inputs": [],
      "name": "batchMintingOccurredThisPeriod",
      "outputs": [
        {
          "internalType": "bool",
          "name": "",
          "type": "bool"
        }
      ],
      "stateMutability": "view",
      "type": "function"
    },
    {
      "inputs": [],
      "name": "completeBatchMintingPeriod",
      "outputs": [],
      "stateMutability": "nonpayable",
      "type": "function"
    },
    {
      "inputs": [],
      "name": "decimals",
      "outputs": [
        {
          "internalType": "uint8",
          "name": "",
          "type": "uint8"
        }
      ],
      "stateMutability": "view",
      "type": "function"
    },
    {
      "inputs": [],
      "name": "getOwnerMintRemainingCooldown",
      "outputs": [
        {
          "internalType": "uint256",
          "name": "",
          "type": "uint256"
        }
      ],
      "stateMutability": "view",
      "type": "function"
    },
    {
      "inputs": [],
      "name": "getRemainingBatchMintAmount",
      "outputs": [
        {
          "internalType": "uint256",
          "name": "",
          "type": "uint256"
        }
      ],
      "stateMutability": "view",
      "type": "function"
    },
    {
      "inputs": [],
      "name": "getRemainingBatchMintCooldown",
      "outputs": [
        {
          "internalType": "uint256",
          "name": "",
          "type": "uint256"
        }
      ],
      "stateMutability": "view",
      "type": "function"
    },
    {
      "inputs": [],
      "name": "getRemainingOwnerMintAmount",
      "outputs": [
        {
          "internalType": "uint256",
          "name": "",
          "type": "uint256"
        }
      ],
      "stateMutability": "view",
      "type": "function"
    },
    {
      "inputs": [],
      "name": "getTotalBatchMintedInPeriod",
      "outputs": [
        {
          "internalType": "uint256",
          "name": "",
          "type": "uint256"
        }
      ],
      "stateMutability": "view",
      "type": "function"
    },
    {
      "inputs": [],
      "name": "getTotalOwnerMintedInPeriod",
      "outputs": [
        {
          "internalType": "uint256",
          "name": "",
          "type": "uint256"
        }
      ],
      "stateMutability": "view",
      "type": "function"
    },
    {
      "inputs": [],
      "name": "lastBatchMintTime",
      "outputs": [
        {
          "internalType": "uint256",
          "name": "",
          "type": "uint256"
        }
      ],
      "stateMutability": "view",
      "type": "function"
    },
    {
      "inputs": [],
      "name": "lastOwnerMintTime",
      "outputs": [
        {
          "internalType": "uint256",
          "name": "",
          "type": "uint256"
        }
      ],
      "stateMutability": "view",
      "type": "function"
    },
    {
      "inputs": [],
      "name": "name",
      "outputs": [
        {
          "internalType": "string",
          "name": "",
          "type": "string"
        }
      ],
      "stateMutability": "view",
      "type": "function"
    },
    {
      "inputs": [],
      "name": "owner",
      "outputs": [
        {
          "internalType": "address",
          "name": "",
          "type": "address"
        }
      ],
      "stateMutability": "view",
      "type": "function"
    },
    {
      "inputs": [
        {
          "internalType": "address",
          "name": "to",
          "type": "address"
        },
        {
          "internalType": "uint256",
          "name": "amount",
          "type": "uint256"
        }
      ],
      "name": "ownerMint",
      "outputs": [],
      "stateMutability": "nonpayable",
      "type": "function"
    },
    {
      "inputs": [],
      "name": "pauseAddress",
      "outputs": [
        {
          "internalType": "address",
          "name": "",
          "type": "address"
        }
      ],
      "stateMutability": "view",
      "type": "function"
    },
    {
      "inputs": [],
      "name": "pauseEndTime",
      "outputs": [
        {
          "internalType": "uint256",
          "name": "",
          "type": "uint256"
        }
      ],
      "stateMutability": "view",
      "type": "function"
    },
    {
      "inputs": [],
      "name": "pauseMinting",
      "outputs": [],
      "stateMutability": "nonpayable",
      "type": "function"
    },
    {
      "inputs": [],
      "name": "renounceOwnership",
      "outputs": [],
      "stateMutability": "nonpayable",
      "type": "function"
    },
    {
      "inputs": [
        {
          "internalType": "uint256",
          "name": "newLimit",
          "type": "uint256"
        }
      ],
      "name": "setBatchMintLimit",
      "outputs": [],
      "stateMutability": "nonpayable",
      "type": "function"
    },
    {
      "inputs": [
        {
          "internalType": "address",
          "name": "newAddress",
          "type": "address"
        }
      ],
      "name": "setBatchMinterAddress",
      "outputs": [],
      "stateMutability": "nonpayable",
      "type": "function"
    },
    {
      "inputs": [
        {
          "internalType": "address",
          "name": "newAddress",
          "type": "address"
        }
      ],
      "name": "setPauseAddress",
      "outputs": [],
      "stateMutability": "nonpayable",
      "type": "function"
    },
    {
      "inputs": [],
      "name": "symbol",
      "outputs": [
        {
          "internalType": "string",
          "name": "",
          "type": "string"
        }
      ],
      "stateMutability": "view",
      "type": "function"
    },
    {
      "inputs": [],
      "name": "totalBatchMintedInPeriod",
      "outputs": [
        {
          "internalType": "uint256",
          "name": "",
          "type": "uint256"
        }
      ],
      "stateMutability": "view",
      "type": "function"
    },
    {
      "inputs": [],
      "name": "totalOwnerMintedInPeriod",
      "outputs": [
        {
          "internalType": "uint256",
          "name": "",
          "type": "uint256"
        }
      ],
      "stateMutability": "view",
      "type": "function"
    },
    {
      "inputs": [],
      "name": "totalSupply",
      "outputs": [
        {
          "internalType": "uint256",
          "name": "",
          "type": "uint256"
        }
      ],
      "stateMutability": "view",
      "type": "function"
    },
    {
      "inputs": [
        {
          "internalType": "address",
          "name": "to",
          "type": "address"
        },
        {
          "internalType": "uint256",
          "name": "value",
          "type": "uint256"
        }
      ],
      "name": "transfer",
      "outputs": [
        {
          "internalType": "bool",
          "name": "",
          "type": "bool"
        }
      ],
      "stateMutability": "nonpayable",
      "type": "function"
    },
    {
      "inputs": [
        {
          "internalType": "address",
          "name": "from",
          "type": "address"
        },
        {
          "internalType": "address",
          "name": "to",
          "type": "address"
        },
        {
          "internalType": "uint256",
          "name": "value",
          "type": "uint256"
        }
      ],
      "name": "transferFrom",
      "outputs": [
        {
          "internalType": "bool",
          "name": "",
          "type": "bool"
        }
      ],
      "stateMutability": "nonpayable",
      "type": "function"
    },
    {
      "inputs": [
        {
          "internalType": "address",
          "name": "newOwner",
          "type": "address"
        }
      ],
      "name": "transferOwnership",
      "outputs": [],
      "stateMutability": "nonpayable",
      "type": "function"
    }
  ],
  "transactionHash": "0xf871e12900ce7ddc73738055cf733b6a4a7bfc538132fac222e53c9664bdb92b",
  "args": [
    "0x8c4f1FB34565650e176d2cd2761B3be10Ca8d35b",
    "0xaC9A4652dF3878d24f35A6a6c022544aeE9748Ff",
    "0x38c772B96D73733F425746bd368B4B4435A37967"
  ],
  "numDeployments": 2,
  "solcInputHash": "4c0bc162839a60251af4429d3de9d238",
  "bytecode": "0x60806040526816c4abbebea01000006008556000600d5534801561002257600080fd5b506040516116f03803806116f0833981016040819052610041916101ce565b826040518060400160405280601081526020016f109d5a591b11dd5a591b08109c99585960821b815250604051806040016040528060058152602001641091d0949160da1b815250816003908161009891906102b0565b5060046100a582826102b0565b5050506001600160a01b0381166100d657604051631e4fbdf760e01b81526000600482015260240160405180910390fd5b6100df81610160565b506001600160a01b03821661010757604051632969679960e11b815260040160405180910390fd5b6001600160a01b03811661012e57604051632969679960e11b815260040160405180910390fd5b600680546001600160a01b039384166001600160a01b031991821617909155600780549290931691161790555061036e565b600580546001600160a01b038381166001600160a01b0319831681179093556040519116919082907f8be0079c531659141344cd1fd0a4f28419497f9722a3daafe3b4186f6b6457e090600090a35050565b80516001600160a01b03811681146101c957600080fd5b919050565b6000806000606084860312156101e357600080fd5b6101ec846101b2565b92506101fa602085016101b2565b9150610208604085016101b2565b90509250925092565b634e487b7160e01b600052604160045260246000fd5b600181811c9082168061023b57607f821691505b60208210810361025b57634e487b7160e01b600052602260045260246000fd5b50919050565b601f8211156102ab57806000526020600020601f840160051c810160208510156102885750805b601f840160051c820191505b818110156102a85760008155600101610294565b50505b505050565b81516001600160401b038111156102c9576102c9610211565b6102dd816102d78454610227565b84610261565b6020601f82116001811461031157600083156102f95750848201515b600019600385901b1c1916600184901b1784556102a8565b600084815260208120601f198516915b828110156103415787850151825560209485019460019092019101610321565b508482101561035f5786840151600019600387901b60f8161c191681555b50505050600190811b01905550565b6113738061037d6000396000f3fe608060405234801561001057600080fd5b50600436106102275760003560e01c806368573107116101305780639ca40756116100b8578063cf1614851161007c578063cf1614851461042a578063da8fbf2a14610434578063dd62ed3e1461043c578063f2fde38b14610475578063f4d98ca31461048857600080fd5b80639ca40756146103eb578063a2e2eb13146103f3578063a9059cbb14610406578063afe1330214610419578063c6bd6bc81461042157600080fd5b8063800f0aad116100ff578063800f0aad146103ac57806389c47394146103b55780638da5cb5b146103c857806395d89b41146103d957806396a377af146103e157600080fd5b8063685731071461036057806370a0823114610373578063715018a61461039c5780637ef787da146103a457600080fd5b8063313ce567116101b3578063484b973c11610182578063484b973c146103005780634cd64b4d1461031357806354d8b1761461031c57806357312481146103245780635d12a6ec1461034f57600080fd5b8063313ce567146102d3578063386e867c146102e25780633e1bf393146102ea57806341b99681146102f757600080fd5b80631c312b98116101fa5780631c312b981461028757806323b872dd1461029c57806323e5b0b0146102af5780632bf6b553146102b75780633088f3e4146102c057600080fd5b806306fdde031461022c578063095ea7b31461024a57806318160ddd1461026d5780631a257c1d1461027f575b600080fd5b610234610491565b60405161024191906110b5565b60405180910390f35b61025d61025836600461111f565b610523565b6040519015158152602001610241565b6002545b604051908152602001610241565b600c54610271565b61029a610295366004611149565b61053d565b005b61025d6102aa36600461116b565b61058e565b600a54610271565b610271600d5481565b61029a6102ce366004611149565b6105b2565b60405160128152602001610241565b610271610603565b600e5461025d9060ff1681565b610271600a5481565b61029a61030e36600461111f565b61063b565b61027160095481565b610271610799565b600754610337906001600160a01b031681565b6040516001600160a01b039091168152602001610241565b61027169021e19e0c9bab240000081565b61029a61036e3660046111f4565b6107c1565b610271610381366004611149565b6001600160a01b031660009081526020819052604090205490565b61029a610a48565b61029a610a5c565b610271600b5481565b61029a6103c3366004611265565b610b18565b6005546001600160a01b0316610337565b610234610b7c565b6102716201518081565b610271610b8b565b600654610337906001600160a01b031681565b61025d61041436600461111f565b610bbd565b610271610bcb565b61027160085481565b6102716201437081565b61029a610bfd565b61027161044a36600461127e565b6001600160a01b03918216600090815260016020908152604080832093909416825291909152205490565b61029a610483366004611149565b610c6a565b610271600c5481565b6060600380546104a0906112b1565b80601f01602080910402602001604051908101604052809291908181526020018280546104cc906112b1565b80156105195780601f106104ee57610100808354040283529160200191610519565b820191906000526020600020905b8154815290600101906020018083116104fc57829003601f168201915b5050505050905090565b600033610531818585610cad565b60019150505b92915050565b610545610cbf565b6001600160a01b03811661056c57604051632969679960e11b815260040160405180910390fd5b600680546001600160a01b0319166001600160a01b0392909216919091179055565b60003361059c858285610cec565b6105a7858585610d6a565b506001949350505050565b6105ba610cbf565b6001600160a01b0381166105e157604051632969679960e11b815260040160405180910390fd5b600780546001600160a01b0319166001600160a01b0392909216919091179055565b600080600b54426106149190611301565b905062015180811061062857600091505090565b6106358162015180611301565b91505090565b610643610cbf565b600d544210156106665760405163269576db60e01b815260040160405180910390fd5b80600003610687576040516303ccd49d60e01b815260040160405180910390fd5b6001600160a01b0382166106ae576040516389a4ea1960e01b815260040160405180910390fd5b62015180600b546106bf9190611314565b42106106cf576000600c55610707565b69021e19e0c9bab240000081600c546106e89190611314565b111561070757604051630774b37760e21b815260040160405180910390fd5b69021e19e0c9bab240000081111561073257604051630774b37760e21b815260040160405180910390fd5b61073c8282610dc9565b80600c600082825461074e9190611314565b909155505042600b556040518181526001600160a01b038316907f76dcb19d73dc6c5a49de41d75b9ab52e3d44ca8cd90c330c238bacb4f8b5b4f59060200160405180910390a25050565b6000600854600a54106107ac5750600090565b600a546008546107bc9190611301565b905090565b6006546001600160a01b031633146107ec57604051636093662d60e01b815260040160405180910390fd5b82811461080c5760405163512509d360e11b815260040160405180910390fd5b600083900361082e5760405163a600c81d60e01b815260040160405180910390fd5b606483111561085057604051631e80759560e21b815260040160405180910390fd5b600d544210156108735760405163269576db60e01b815260040160405180910390fd5b6000805b828110156108e65783838281811061089157610891611327565b905060200201356000036108b8576040516303ccd49d60e01b815260040160405180910390fd5b8383828181106108ca576108ca611327565b90506020020135826108dc9190611314565b9150600101610877565b506108f081610e03565b60005b84811015610a1c57600086868381811061090f5761090f611327565b90506020020160208101906109249190611149565b6001600160a01b03160361094b576040516389a4ea1960e01b815260040160405180910390fd5b61099386868381811061096057610960611327565b90506020020160208101906109759190611149565b85858481811061098757610987611327565b90506020020135610dc9565b8585828181106109a5576109a5611327565b90506020020160208101906109ba9190611149565b6001600160a01b03167f4b6dcabdeaeb0ec6121e2e093c11a74bd84844268dc1131fd8ba3b363a82d7e88585848181106109f6576109f6611327565b90506020020135604051610a0c91815260200190565b60405180910390a26001016108f3565b5080600a6000828254610a2f9190611314565b9091555050600e805460ff191660011790555050505050565b610a50610cbf565b610a5a6000610e64565b565b6006546001600160a01b03163314610a8757604051636093662d60e01b815260040160405180910390fd5b600d54421015610aaa57604051631f9618c760e21b815260040160405180910390fd5b600e5460ff16610acd5760405163632150cd60e01b815260040160405180910390fd5b6000600a55426009819055600e805460ff191690556040519081527fb9cecf4f4de9abfb9c14d26ae60e353d6e177707f9179b5937c9baec9fbadfe9906020015b60405180910390a1565b610b20610cbf565b80600003610b4157604051630ced08f560e31b815260040160405180910390fd5b60088190556040518181527fd9e2131a28c9d9de2d1dca598162fa87a666e3007ebf5fb04700450a68a4cff99060200160405180910390a150565b6060600480546104a0906112b1565b600069021e19e0c9bab2400000600c5410610ba65750600090565b600c546107bc9069021e19e0c9bab2400000611301565b600033610531818585610d6a565b60008060095442610bdc9190611301565b9050620143708110610bf057600091505090565b6106358162014370611301565b6007546001600160a01b03163314610c2857604051632ce5db9f60e01b815260040160405180910390fd5b610c354262015180611314565b600d8190556040519081527f38d4174e7163889d8e9bd4aa2078c460fd3a1964ad51aef8de1467ee4b29ae1190602001610b0e565b610c72610cbf565b6001600160a01b038116610ca157604051631e4fbdf760e01b8152600060048201526024015b60405180910390fd5b610caa81610e64565b50565b610cba8383836001610eb6565b505050565b6005546001600160a01b03163314610a5a5760405163118cdaa760e01b8152336004820152602401610c98565b6001600160a01b038381166000908152600160209081526040808320938616835292905220546000198114610d645781811015610d5557604051637dc7a0d960e11b81526001600160a01b03841660048201526024810182905260448101839052606401610c98565b610d6484848484036000610eb6565b50505050565b6001600160a01b038316610d9457604051634b637e8f60e11b815260006004820152602401610c98565b6001600160a01b038216610dbe5760405163ec442f0560e01b815260006004820152602401610c98565b610cba838383610f8b565b6001600160a01b038216610df35760405163ec442f0560e01b815260006004820152602401610c98565b610dff60008383610f8b565b5050565b62014370600954610e149190611314565b421015610e3457604051632ed6564360e21b815260040160405180910390fd5b60085481600a54610e459190611314565b1115610caa57604051635b9b900160e01b815260040160405180910390fd5b600580546001600160a01b038381166001600160a01b0319831681179093556040519116919082907f8be0079c531659141344cd1fd0a4f28419497f9722a3daafe3b4186f6b6457e090600090a35050565b6001600160a01b038416610ee05760405163e602df0560e01b815260006004820152602401610c98565b6001600160a01b038316610f0a57604051634a1406b160e11b815260006004820152602401610c98565b6001600160a01b0380851660009081526001602090815260408083209387168352929052208290558015610d6457826001600160a01b0316846001600160a01b03167f8c5be1e5ebec7d5bd14f71427d1e84f3dd0314c0f7b2291e5b200ac8c7c3b92584604051610f7d91815260200190565b60405180910390a350505050565b6001600160a01b038316610fb6578060026000828254610fab9190611314565b909155506110289050565b6001600160a01b038316600090815260208190526040902054818110156110095760405163391434e360e21b81526001600160a01b03851660048201526024810182905260448101839052606401610c98565b6001600160a01b03841660009081526020819052604090209082900390555b6001600160a01b03821661104457600280548290039055611063565b6001600160a01b03821660009081526020819052604090208054820190555b816001600160a01b0316836001600160a01b03167fddf252ad1be2c89b69c2b068fc378daa952ba7f163c4a11628f55a4df523b3ef836040516110a891815260200190565b60405180910390a3505050565b602081526000825180602084015260005b818110156110e357602081860181015160408684010152016110c6565b506000604082850101526040601f19601f83011684010191505092915050565b80356001600160a01b038116811461111a57600080fd5b919050565b6000806040838503121561113257600080fd5b61113b83611103565b946020939093013593505050565b60006020828403121561115b57600080fd5b61116482611103565b9392505050565b60008060006060848603121561118057600080fd5b61118984611103565b925061119760208501611103565b929592945050506040919091013590565b60008083601f8401126111ba57600080fd5b50813567ffffffffffffffff8111156111d257600080fd5b6020830191508360208260051b85010111156111ed57600080fd5b9250929050565b6000806000806040858703121561120a57600080fd5b843567ffffffffffffffff81111561122157600080fd5b61122d878288016111a8565b909550935050602085013567ffffffffffffffff81111561124d57600080fd5b611259878288016111a8565b95989497509550505050565b60006020828403121561127757600080fd5b5035919050565b6000806040838503121561129157600080fd5b61129a83611103565b91506112a860208401611103565b90509250929050565b600181811c908216806112c557607f821691505b6020821081036112e557634e487b7160e01b600052602260045260246000fd5b50919050565b634e487b7160e01b600052601160045260246000fd5b81810381811115610537576105376112eb565b80820180821115610537576105376112eb565b634e487b7160e01b600052603260045260246000fdfea2646970667358221220001f20b9182fe148aaf344f97bbc78a18321becc55c5894225e9931d8b50ace164736f6c634300081e0033",
  "devdoc": {
    "errors": {
      "ERC20InsufficientAllowance(address,uint256,uint256)": [
        {
          "details": "Indicates a failure with the `spender`s `allowance`. Used in transfers.",
          "params": {
            "allowance": "Amount of tokens a `spender` is allowed to operate with.",
            "needed": "Minimum amount required to perform a transfer.",
            "spender": "Address that may be allowed to operate on tokens without being their owner."
          }
        }
      ],
      "ERC20InsufficientBalance(address,uint256,uint256)": [
        {
          "details": "Indicates an error related to the current `balance` of a `sender`. Used in transfers.",
          "params": {
            "balance": "Current balance for the interacting account.",
            "needed": "Minimum amount required to perform a transfer.",
            "sender": "Address whose tokens are being transferred."
          }
        }
      ],
      "ERC20InvalidApprover(address)": [
        {
          "details": "Indicates a failure with the `approver` of a token to be approved. Used in approvals.",
          "params": {
            "approver": "Address initiating an approval operation."
          }
        }
      ],
      "ERC20InvalidReceiver(address)": [
        {
          "details": "Indicates a failure with the token `receiver`. Used in transfers.",
          "params": {
            "receiver": "Address to which tokens are being transferred."
          }
        }
      ],
      "ERC20InvalidSender(address)": [
        {
          "details": "Indicates a failure with the token `sender`. Used in transfers.",
          "params": {
            "sender": "Address whose tokens are being transferred."
          }
        }
      ],
      "ERC20InvalidSpender(address)": [
        {
          "details": "Indicates a failure with the `spender` to be approved. Used in approvals.",
          "params": {
            "spender": "Address that may be allowed to operate on tokens without being their owner."
          }
        }
      ],
      "OwnableInvalidOwner(address)": [
        {
          "details": "The owner is not a valid owner account. (eg. `address(0)`)"
        }
      ],
      "OwnableUnauthorizedAccount(address)": [
        {
          "details": "The caller account is not authorized to perform an operation."
        }
      ]
    },
    "events": {
      "Approval(address,address,uint256)": {
        "details": "Emitted when the allowance of a `spender` for an `owner` is set by a call to {approve}. `value` is the new allowance."
      },
      "Transfer(address,address,uint256)": {
        "details": "Emitted when `value` tokens are moved from one account (`from`) to another (`to`). Note that `value` may be zero."
      }
    },
    "kind": "dev",
    "methods": {
      "allowance(address,address)": {
        "details": "See {IERC20-allowance}."
      },
      "approve(address,uint256)": {
        "details": "See {IERC20-approve}. NOTE: If `value` is the maximum `uint256`, the allowance is not updated on `transferFrom`. This is semantically equivalent to an infinite approval. Requirements: - `spender` cannot be the zero address."
      },
      "balanceOf(address)": {
        "details": "See {IERC20-balanceOf}."
      },
      "batchMint(address[],uint256[])": {
        "details": "Only the authorized Batch Minter can call this functionEnforces overall rate limiting and validates all inputsMaximum batch size is 100 to prevent gas issues",
        "params": {
          "addresses": "Array of recipient addresses",
          "amounts": "Array of amounts to mint (must match addresses array length)"
        }
      },
      "completeBatchMintingPeriod()": {
        "details": "Only the RPC Bread Minter can call this function after minting has occurredBlocked when minting is paused to prevent period reset during emergency"
      },
      "constructor": {
        "params": {
          "batchMinterAddress_": "The address authorized to perform batch mint/burn operations",
          "initialOwner": "The address that will own the contract and receive initial tokens",
          "pauseAddress_": "The address authorized to pause minting"
        }
      },
      "decimals()": {
        "details": "Returns the number of decimals used to get its user representation. For example, if `decimals` equals `2`, a balance of `505` tokens should be displayed to a user as `5.05` (`505 / 10 ** 2`). Tokens usually opt for a value of 18, imitating the relationship between Ether and Wei. This is the default value returned by this function, unless it's overridden. NOTE: This information is only used for _display_ purposes: it in no way affects any of the arithmetic of the contract, including {IERC20-balanceOf} and {IERC20-transfer}."
      },
      "getOwnerMintRemainingCooldown()": {
        "returns": {
          "_0": "The number of seconds remaining in the owner mint cooldown period (0 if cooldown has passed)"
        }
      },
      "getRemainingBatchMintAmount()": {
        "returns": {
          "_0": "The amount of tokens that can still be batch minted in the current period"
        }
      },
      "getRemainingBatchMintCooldown()": {
        "returns": {
          "_0": "The number of seconds remaining in the cooldown period (0 if cooldown has passed)"
        }
      },
      "getRemainingOwnerMintAmount()": {
        "returns": {
          "_0": "The amount of tokens that can still be owner minted in the current period"
        }
      },
      "getTotalBatchMintedInPeriod()": {
        "returns": {
          "_0": "The amount of tokens batch minted in the current period"
        }
      },
      "getTotalOwnerMintedInPeriod()": {
        "returns": {
          "_0": "The amount of tokens owner minted in the current period"
        }
      },
      "name()": {
        "details": "Returns the name of the token."
      },
      "owner()": {
        "details": "Returns the address of the current owner."
      },
      "ownerMint(address,uint256)": {
        "details": "Only the contract owner can call this functionEnforces 24-hour cooldown and owner mint limitRespects global pause functionality",
        "params": {
          "amount": "The amount of tokens to mint",
          "to": "The address to mint tokens to"
        }
      },
      "pauseMinting()": {
        "details": "Only the pause address can call this function"
      },
      "renounceOwnership()": {
        "details": "Leaves the contract without owner. It will not be possible to call `onlyOwner` functions. Can only be called by the current owner. NOTE: Renouncing ownership will leave the contract without an owner, thereby disabling any functionality that is only available to the owner."
      },
      "setBatchMintLimit(uint256)": {
        "details": "Only the contract owner can call this function. Limit must be greater than 0",
        "params": {
          "newLimit": "The new mint limit in wei (with 18 decimals)"
        }
      },
      "setBatchMinterAddress(address)": {
        "details": "Only the contract owner can call this function",
        "params": {
          "newAddress": "The new address that will be authorized to perform batch operations"
        }
      },
      "setPauseAddress(address)": {
        "details": "Only the contract owner can call this function",
        "params": {
          "newAddress": "The new address that will be authorized to perform pauses"
        }
      },
      "symbol()": {
        "details": "Returns the symbol of the token, usually a shorter version of the name."
      },
      "totalSupply()": {
        "details": "See {IERC20-totalSupply}."
      },
      "transfer(address,uint256)": {
        "details": "See {IERC20-transfer}. Requirements: - `to` cannot be the zero address. - the caller must have a balance of at least `value`."
      },
      "transferFrom(address,address,uint256)": {
        "details": "See {IERC20-transferFrom}. Emits an {Approval} event indicating the updated allowance. This is not required by the EIP. See the note at the beginning of {ERC20}. NOTE: Does not update the allowance if the current allowance is the maximum `uint256`. Requirements: - `from` and `to` cannot be the zero address. - `from` must have a balance of at least `value`. - the caller must have allowance for ``from``'s tokens of at least `value`."
      },
      "transferOwnership(address)": {
        "details": "Transfers ownership of the contract to a new account (`newOwner`). Can only be called by the current owner."
      }
    },
    "version": 1
  },
  "userdoc": {
    "kind": "user",
    "methods": {
      "batchMint(address[],uint256[])": {
        "notice": "Mints tokens to multiple addresses in a single transaction"
      },
      "completeBatchMintingPeriod()": {
        "notice": "Completes the current batch minting period and resets for the next period"
      },
      "getOwnerMintRemainingCooldown()": {
        "notice": "Returns the remaining cooldown time before owner minting can resume"
      },
      "getRemainingBatchMintAmount()": {
        "notice": "Returns the remaining amount that can be batch minted in the current period"
      },
      "getRemainingBatchMintCooldown()": {
        "notice": "Returns the remaining cooldown time before batch minting can resume globally"
      },
      "getRemainingOwnerMintAmount()": {
        "notice": "Returns the remaining amount that can be owner minted in the current period"
      },
      "getTotalBatchMintedInPeriod()": {
        "notice": "Returns the amount of tokens batch minted in the current period"
      },
      "getTotalOwnerMintedInPeriod()": {
        "notice": "Returns the amount of tokens owner minted in the current period"
      },
      "ownerMint(address,uint256)": {
        "notice": "Mints tokens to a single address (can be called by owner only)"
      },
      "pauseMinting()": {
        "notice": "Pauses the minting functionality for 24 hours"
      },
      "setBatchMintLimit(uint256)": {
        "notice": "Sets the maximum amount that can be minted per cooldown period globally"
      },
      "setBatchMinterAddress(address)": {
        "notice": "Updates the Batch Minter address"
      },
      "setPauseAddress(address)": {
        "notice": "Updates the address that has pausing privileges"
      }
    },
    "version": 1
  },
  "storageLayout": {
    "storage": [
      {
        "astId": 307,
        "contract": "contracts/BuidlGuidlBread.sol:BuidlGuidlBread",
        "label": "_balances",
        "offset": 0,
        "slot": "0",
        "type": "t_mapping(t_address,t_uint256)"
      },
      {
        "astId": 313,
        "contract": "contracts/BuidlGuidlBread.sol:BuidlGuidlBread",
        "label": "_allowances",
        "offset": 0,
        "slot": "1",
        "type": "t_mapping(t_address,t_mapping(t_address,t_uint256))"
      },
      {
        "astId": 315,
        "contract": "contracts/BuidlGuidlBread.sol:BuidlGuidlBread",
        "label": "_totalSupply",
        "offset": 0,
        "slot": "2",
        "type": "t_uint256"
      },
      {
        "astId": 317,
        "contract": "contracts/BuidlGuidlBread.sol:BuidlGuidlBread",
        "label": "_name",
        "offset": 0,
        "slot": "3",
        "type": "t_string_storage"
      },
      {
        "astId": 319,
        "contract": "contracts/BuidlGuidlBread.sol:BuidlGuidlBread",
        "label": "_symbol",
        "offset": 0,
        "slot": "4",
        "type": "t_string_storage"
      },
      {
        "astId": 8,
        "contract": "contracts/BuidlGuidlBread.sol:BuidlGuidlBread",
        "label": "_owner",
        "offset": 0,
        "slot": "5",
        "type": "t_address"
      },
      {
        "astId": 958,
        "contract": "contracts/BuidlGuidlBread.sol:BuidlGuidlBread",
        "label": "batchMinterAddress",
        "offset": 0,
        "slot": "6",
        "type": "t_address"
      },
      {
        "astId": 960,
        "contract": "contracts/BuidlGuidlBread.sol:BuidlGuidlBread",
        "label": "pauseAddress",
        "offset": 0,
        "slot": "7",
        "type": "t_address"
      },
      {
        "astId": 963,
        "contract": "contracts/BuidlGuidlBread.sol:BuidlGuidlBread",
        "label": "batchMintLimit",
        "offset": 0,
        "slot": "8",
        "type": "t_uint256"
      },
      {
        "astId": 965,
        "contract": "contracts/BuidlGuidlBread.sol:BuidlGuidlBread",
        "label": "lastBatchMintTime",
        "offset": 0,
        "slot": "9",
        "type": "t_uint256"
      },
      {
        "astId": 967,
        "contract": "contracts/BuidlGuidlBread.sol:BuidlGuidlBread",
        "label": "totalBatchMintedInPeriod",
        "offset": 0,
        "slot": "10",
        "type": "t_uint256"
      },
      {
        "astId": 969,
        "contract": "contracts/BuidlGuidlBread.sol:BuidlGuidlBread",
        "label": "lastOwnerMintTime",
        "offset": 0,
        "slot": "11",
        "type": "t_uint256"
      },
      {
        "astId": 971,
        "contract": "contracts/BuidlGuidlBread.sol:BuidlGuidlBread",
        "label": "totalOwnerMintedInPeriod",
        "offset": 0,
        "slot": "12",
        "type": "t_uint256"
      },
      {
        "astId": 974,
        "contract": "contracts/BuidlGuidlBread.sol:BuidlGuidlBread",
        "label": "pauseEndTime",
        "offset": 0,
        "slot": "13",
        "type": "t_uint256"
      },
      {
        "astId": 976,
        "contract": "contracts/BuidlGuidlBread.sol:BuidlGuidlBread",
        "label": "batchMintingOccurredThisPeriod",
        "offset": 0,
        "slot": "14",
        "type": "t_bool"
      }
    ],
    "types": {
      "t_address": {
        "encoding": "inplace",
        "label": "address",
        "numberOfBytes": "20"
      },
      "t_bool": {
        "encoding": "inplace",
        "label": "bool",
        "numberOfBytes": "1"
      },
      "t_mapping(t_address,t_mapping(t_address,t_uint256))": {
        "encoding": "mapping",
        "key": "t_address",
        "label": "mapping(address => mapping(address => uint256))",
        "numberOfBytes": "32",
        "value": "t_mapping(t_address,t_uint256)"
      },
      "t_mapping(t_address,t_uint256)": {
        "encoding": "mapping",
        "key": "t_address",
        "label": "mapping(address => uint256)",
        "numberOfBytes": "32",
        "value": "t_uint256"
      },
      "t_string_storage": {
        "encoding": "bytes",
        "label": "string",
        "numberOfBytes": "32"
      },
      "t_uint256": {
        "encoding": "inplace",
        "label": "uint256",
        "numberOfBytes": "32"
      }
    }
  }
}