{
  "address": "0x00CE138f87Ba6715378e4F2896B549448C2f8016",
  "abi": [
    {
      "inputs": [
        {
          "internalType": "address",
          "name": "rpcBreadMinterAddress_",
          "type": "address"
        }
      ],
      "stateMutability": "nonpayable",
      "type": "constructor"
    },
    {
      "inputs": [
        {
          "internalType": "address",
          "name": "spender",
          "type": "address"
        },
        {
          "internalType": "uint256",
          "name": "allowance",
          "type": "uint256"
        },
        {
          "internalType": "uint256",
          "name": "needed",
          "type": "uint256"
        }
      ],
      "name": "ERC20InsufficientAllowance",
      "type": "error"
    },
    {
      "inputs": [
        {
          "internalType": "address",
          "name": "sender",
          "type": "address"
        },
        {
          "internalType": "uint256",
          "name": "balance",
          "type": "uint256"
        },
        {
          "internalType": "uint256",
          "name": "needed",
          "type": "uint256"
        }
      ],
      "name": "ERC20InsufficientBalance",
      "type": "error"
    },
    {
      "inputs": [
        {
          "internalType": "address",
          "name": "approver",
          "type": "address"
        }
      ],
      "name": "ERC20InvalidApprover",
      "type": "error"
    },
    {
      "inputs": [
        {
          "internalType": "address",
          "name": "receiver",
          "type": "address"
        }
      ],
      "name": "ERC20InvalidReceiver",
      "type": "error"
    },
    {
      "inputs": [
        {
          "internalType": "address",
          "name": "sender",
          "type": "address"
        }
      ],
      "name": "ERC20InvalidSender",
      "type": "error"
    },
    {
      "inputs": [
        {
          "internalType": "address",
          "name": "spender",
          "type": "address"
        }
      ],
      "name": "ERC20InvalidSpender",
      "type": "error"
    },
    {
      "inputs": [
        {
          "internalType": "address",
          "name": "owner",
          "type": "address"
        }
      ],
      "name": "OwnableInvalidOwner",
      "type": "error"
    },
    {
      "inputs": [
        {
          "internalType": "address",
          "name": "account",
          "type": "address"
        }
      ],
      "name": "OwnableUnauthorizedAccount",
      "type": "error"
    },
    {
      "anonymous": false,
      "inputs": [
        {
          "indexed": true,
          "internalType": "address",
          "name": "owner",
          "type": "address"
        },
        {
          "indexed": true,
          "internalType": "address",
          "name": "spender",
          "type": "address"
        },
        {
          "indexed": false,
          "internalType": "uint256",
          "name": "value",
          "type": "uint256"
        }
      ],
      "name": "Approval",
      "type": "event"
    },
    {
      "anonymous": false,
      "inputs": [
        {
          "indexed": false,
          "internalType": "uint256",
          "name": "newCooldown",
          "type": "uint256"
        }
      ],
      "name": "CooldownUpdated",
      "type": "event"
    },
    {
      "anonymous": false,
      "inputs": [
        {
          "indexed": true,
          "internalType": "address",
          "name": "user",
          "type": "address"
        },
        {
          "indexed": false,
          "internalType": "uint256",
          "name": "amount",
          "type": "uint256"
        }
      ],
      "name": "Mint",
      "type": "event"
    },
    {
      "anonymous": false,
      "inputs": [
        {
          "indexed": false,
          "internalType": "uint256",
          "name": "newLimit",
          "type": "uint256"
        }
      ],
      "name": "MintLimitUpdated",
      "type": "event"
    },
    {
      "anonymous": false,
      "inputs": [
        {
          "indexed": true,
          "internalType": "address",
          "name": "previousOwner",
          "type": "address"
        },
        {
          "indexed": true,
          "internalType": "address",
          "name": "newOwner",
          "type": "address"
        }
      ],
      "name": "OwnershipTransferred",
      "type": "event"
    },
    {
      "anonymous": false,
      "inputs": [
        {
          "indexed": true,
          "internalType": "address",
          "name": "target",
          "type": "address"
        },
        {
          "indexed": false,
          "internalType": "uint256",
          "name": "amount",
          "type": "uint256"
        }
      ],
      "name": "PenaltyBurn",
      "type": "event"
    },
    {
      "anonymous": false,
      "inputs": [
        {
          "indexed": true,
          "internalType": "address",
          "name": "from",
          "type": "address"
        },
        {
          "indexed": true,
          "internalType": "address",
          "name": "to",
          "type": "address"
        },
        {
          "indexed": false,
          "internalType": "uint256",
          "name": "value",
          "type": "uint256"
        }
      ],
      "name": "Transfer",
      "type": "event"
    },
    {
      "inputs": [
        {
          "internalType": "address",
          "name": "owner",
          "type": "address"
        },
        {
          "internalType": "address",
          "name": "spender",
          "type": "address"
        }
      ],
      "name": "allowance",
      "outputs": [
        {
          "internalType": "uint256",
          "name": "",
          "type": "uint256"
        }
      ],
      "stateMutability": "view",
      "type": "function"
    },
    {
      "inputs": [
        {
          "internalType": "address",
          "name": "spender",
          "type": "address"
        },
        {
          "internalType": "uint256",
          "name": "value",
          "type": "uint256"
        }
      ],
      "name": "approve",
      "outputs": [
        {
          "internalType": "bool",
          "name": "",
          "type": "bool"
        }
      ],
      "stateMutability": "nonpayable",
      "type": "function"
    },
    {
      "inputs": [
        {
          "internalType": "address",
          "name": "account",
          "type": "address"
        }
      ],
      "name": "balanceOf",
      "outputs": [
        {
          "internalType": "uint256",
          "name": "",
          "type": "uint256"
        }
      ],
      "stateMutability": "view",
      "type": "function"
    },
    {
      "inputs": [
        {
          "internalType": "address[]",
          "name": "addresses",
          "type": "address[]"
        },
        {
          "internalType": "uint256[]",
          "name": "amounts",
          "type": "uint256[]"
        }
      ],
      "name": "batchBurn",
      "outputs": [],
      "stateMutability": "nonpayable",
      "type": "function"
    },
    {
      "inputs": [
        {
          "internalType": "address[]",
          "name": "addresses",
          "type": "address[]"
        },
        {
          "internalType": "uint256[]",
          "name": "amounts",
          "type": "uint256[]"
        }
      ],
      "name": "batchMint",
      "outputs": [],
      "stateMutability": "nonpayable",
      "type": "function"
    },
    {
      "inputs": [],
      "name": "decimals",
      "outputs": [
        {
          "internalType": "uint8",
          "name": "",
          "type": "uint8"
        }
      ],
      "stateMutability": "view",
      "type": "function"
    },
    {
      "inputs": [
        {
          "internalType": "address",
          "name": "user",
          "type": "address"
        }
      ],
      "name": "getMintedInPeriod",
      "outputs": [
        {
          "internalType": "uint256",
          "name": "",
          "type": "uint256"
        }
      ],
      "stateMutability": "view",
      "type": "function"
    },
    {
      "inputs": [
        {
          "internalType": "address",
          "name": "user",
          "type": "address"
        }
      ],
      "name": "getRemainingCooldown",
      "outputs": [
        {
          "internalType": "uint256",
          "name": "",
          "type": "uint256"
        }
      ],
      "stateMutability": "view",
      "type": "function"
    },
    {
      "inputs": [
        {
          "internalType": "address",
          "name": "user",
          "type": "address"
        }
      ],
      "name": "getRemainingMintAmount",
      "outputs": [
        {
          "internalType": "uint256",
          "name": "",
          "type": "uint256"
        }
      ],
      "stateMutability": "view",
      "type": "function"
    },
    {
      "inputs": [
        {
          "internalType": "address",
          "name": "",
          "type": "address"
        }
      ],
      "name": "lastMintTime",
      "outputs": [
        {
          "internalType": "uint256",
          "name": "",
          "type": "uint256"
        }
      ],
      "stateMutability": "view",
      "type": "function"
    },
    {
      "inputs": [],
      "name": "mintCooldown",
      "outputs": [
        {
          "internalType": "uint256",
          "name": "",
          "type": "uint256"
        }
      ],
      "stateMutability": "view",
      "type": "function"
    },
    {
      "inputs": [],
      "name": "mintLimit",
      "outputs": [
        {
          "internalType": "uint256",
          "name": "",
          "type": "uint256"
        }
      ],
      "stateMutability": "view",
      "type": "function"
    },
    {
      "inputs": [
        {
          "internalType": "address",
          "name": "",
          "type": "address"
        }
      ],
      "name": "mintedInPeriod",
      "outputs": [
        {
          "internalType": "uint256",
          "name": "",
          "type": "uint256"
        }
      ],
      "stateMutability": "view",
      "type": "function"
    },
    {
      "inputs": [],
      "name": "name",
      "outputs": [
        {
          "internalType": "string",
          "name": "",
          "type": "string"
        }
      ],
      "stateMutability": "view",
      "type": "function"
    },
    {
      "inputs": [],
      "name": "owner",
      "outputs": [
        {
          "internalType": "address",
          "name": "",
          "type": "address"
        }
      ],
      "stateMutability": "view",
      "type": "function"
    },
    {
      "inputs": [],
      "name": "renounceOwnership",
      "outputs": [],
      "stateMutability": "nonpayable",
      "type": "function"
    },
    {
      "inputs": [],
      "name": "rpcBreadMinterAddress",
      "outputs": [
        {
          "internalType": "address",
          "name": "",
          "type": "address"
        }
      ],
      "stateMutability": "view",
      "type": "function"
    },
    {
      "inputs": [
        {
          "internalType": "uint256",
          "name": "newCooldown",
          "type": "uint256"
        }
      ],
      "name": "setMintCooldown",
      "outputs": [],
      "stateMutability": "nonpayable",
      "type": "function"
    },
    {
      "inputs": [
        {
          "internalType": "uint256",
          "name": "newLimit",
          "type": "uint256"
        }
      ],
      "name": "setMintLimit",
      "outputs": [],
      "stateMutability": "nonpayable",
      "type": "function"
    },
    {
      "inputs": [
        {
          "internalType": "address",
          "name": "newAddress",
          "type": "address"
        }
      ],
      "name": "setRpcBreadMinterAddress",
      "outputs": [],
      "stateMutability": "nonpayable",
      "type": "function"
    },
    {
      "inputs": [],
      "name": "symbol",
      "outputs": [
        {
          "internalType": "string",
          "name": "",
          "type": "string"
        }
      ],
      "stateMutability": "view",
      "type": "function"
    },
    {
      "inputs": [],
      "name": "totalSupply",
      "outputs": [
        {
          "internalType": "uint256",
          "name": "",
          "type": "uint256"
        }
      ],
      "stateMutability": "view",
      "type": "function"
    },
    {
      "inputs": [
        {
          "internalType": "address",
          "name": "to",
          "type": "address"
        },
        {
          "internalType": "uint256",
          "name": "value",
          "type": "uint256"
        }
      ],
      "name": "transfer",
      "outputs": [
        {
          "internalType": "bool",
          "name": "",
          "type": "bool"
        }
      ],
      "stateMutability": "nonpayable",
      "type": "function"
    },
    {
      "inputs": [
        {
          "internalType": "address",
          "name": "from",
          "type": "address"
        },
        {
          "internalType": "address",
          "name": "to",
          "type": "address"
        },
        {
          "internalType": "uint256",
          "name": "value",
          "type": "uint256"
        }
      ],
      "name": "transferFrom",
      "outputs": [
        {
          "internalType": "bool",
          "name": "",
          "type": "bool"
        }
      ],
      "stateMutability": "nonpayable",
      "type": "function"
    },
    {
      "inputs": [
        {
          "internalType": "address",
          "name": "newOwner",
          "type": "address"
        }
      ],
      "name": "transferOwnership",
      "outputs": [],
      "stateMutability": "nonpayable",
      "type": "function"
    }
  ],
  "transactionHash": "0x4a61aa4c8ec0368d7f0eeba08475566dae1d33c9aadbde8eebdf42e7c73886c3",
  "args": [
    "0xaC9A4652dF3878d24f35A6a6c022544aeE9748Ff"
  ],
  "numDeployments": 1,
  "solcInputHash": "85e8418520db9e6a286a2f39bcabf0a7",
  "bytecode": "0x608060405268091b77e5e5d9a00000600755620151806008553480156200002557600080fd5b5060405162001a2038038062001a208339810160408190526200004891620002ea565b336040518060400160405280601081526020016f109d5a591b11dd5a591b08109c99585960821b815250604051806040016040528060058152602001641091d0949160da1b8152508160039081620000a19190620003c1565b506004620000b08282620003c1565b5050506001600160a01b038116620000e357604051631e4fbdf760e01b8152600060048201526024015b60405180910390fd5b620000ee8162000127565b50600680546001600160a01b0319166001600160a01b038316179055620001203369152d02c7e14af680000062000179565b50620004b5565b600580546001600160a01b038381166001600160a01b0319831681179093556040519116919082907f8be0079c531659141344cd1fd0a4f28419497f9722a3daafe3b4186f6b6457e090600090a35050565b6001600160a01b038216620001a55760405163ec442f0560e01b815260006004820152602401620000da565b620001b360008383620001b7565b5050565b6001600160a01b038316620001e6578060026000828254620001da91906200048d565b909155506200025a9050565b6001600160a01b038316600090815260208190526040902054818110156200023b5760405163391434e360e21b81526001600160a01b03851660048201526024810182905260448101839052606401620000da565b6001600160a01b03841660009081526020819052604090209082900390555b6001600160a01b038216620002785760028054829003905562000297565b6001600160a01b03821660009081526020819052604090208054820190555b816001600160a01b0316836001600160a01b03167fddf252ad1be2c89b69c2b068fc378daa952ba7f163c4a11628f55a4df523b3ef83604051620002dd91815260200190565b60405180910390a3505050565b600060208284031215620002fd57600080fd5b81516001600160a01b03811681146200031557600080fd5b9392505050565b634e487b7160e01b600052604160045260246000fd5b600181811c908216806200034757607f821691505b6020821081036200036857634e487b7160e01b600052602260045260246000fd5b50919050565b601f821115620003bc57600081815260208120601f850160051c81016020861015620003975750805b601f850160051c820191505b81811015620003b857828155600101620003a3565b5050505b505050565b81516001600160401b03811115620003dd57620003dd6200031c565b620003f581620003ee845462000332565b846200036e565b602080601f8311600181146200042d5760008415620004145750858301515b600019600386901b1c1916600185901b178555620003b8565b600085815260208120601f198616915b828110156200045e578886015182559484019460019091019084016200043d565b50858210156200047d5787850151600019600388901b60f8161c191681555b5050505050600190811b01905550565b80820180821115620004af57634e487b7160e01b600052601160045260246000fd5b92915050565b61155b80620004c56000396000f3fe608060405234801561001057600080fd5b50600436106101735760003560e01c8063715018a6116100de578063a2c9225711610097578063dd62ed3e11610071578063dd62ed3e14610337578063e6f3e00414610370578063f2fde38b14610383578063fc71a1cc1461039657600080fd5b8063a2c92257146102fe578063a84bea9714610311578063a9059cbb1461032457600080fd5b8063715018a61461028d5780638da5cb5b146102955780638f1550f5146102ba57806395d89b41146102da578063996517cf146102e25780639e6a1d7d146102eb57600080fd5b8063344a681e11610130578063344a681e146101f65780634a6cc6771461020b5780634b957eb41461021e57806368573107146102315780636aa71d181461024457806370a082311461026457600080fd5b806306fdde0314610178578063095ea7b31461019657806318160ddd146101b95780632000d430146101cb57806323b872dd146101d4578063313ce567146101e7575b600080fd5b6101806103a9565b60405161018d91906111f4565b60405180910390f35b6101a96101a436600461125e565b61043b565b604051901515815260200161018d565b6002545b60405190815260200161018d565b6101bd60085481565b6101a96101e2366004611288565b610455565b6040516012815260200161018d565b6102096102043660046112c4565b610479565b005b610209610219366004611329565b610512565b6101bd61022c366004611395565b6107c2565b61020961023f366004611329565b610818565b6101bd610252366004611395565b60096020526000908152604090205481565b6101bd610272366004611395565b6001600160a01b031660009081526020819052604090205490565b610209610b09565b6005546001600160a01b03165b6040516001600160a01b03909116815260200161018d565b6101bd6102c8366004611395565b600a6020526000908152604090205481565b610180610b1d565b6101bd60075481565b6102096102f93660046112c4565b610b2c565b61020961030c366004611395565b610bc3565b6006546102a2906001600160a01b031681565b6101a961033236600461125e565b610bed565b6101bd6103453660046113b0565b6001600160a01b03918216600090815260016020908152604080832093909416825291909152205490565b6101bd61037e366004611395565b610bfb565b610209610391366004611395565b610c4d565b6101bd6103a4366004611395565b610c8b565b6060600380546103b8906113e3565b80601f01602080910402602001604051908101604052809291908181526020018280546103e4906113e3565b80156104315780601f1061040657610100808354040283529160200191610431565b820191906000526020600020905b81548152906001019060200180831161041457829003601f168201915b5050505050905090565b600033610449818585610d1c565b60019150505b92915050565b600033610463858285610d2e565b61046e858585610dac565b506001949350505050565b610481610e0b565b600081116104d65760405162461bcd60e51b815260206004820152601f60248201527f436f6f6c646f776e206d7573742062652067726561746572207468616e20300060448201526064015b60405180910390fd5b60088190556040518181527f583d8b24c5439ab7d810e51e37e8db41ba66f1168fd7b752ceae0c7681c5272c906020015b60405180910390a150565b6006546001600160a01b0316331461053c5760405162461bcd60e51b81526004016104cd9061141d565b82811461055b5760405162461bcd60e51b81526004016104cd90611469565b826105a15760405162461bcd60e51b81526020600482015260166024820152754172726179732063616e6e6f7420626520656d70747960501b60448201526064016104cd565b60648311156105ee5760405162461bcd60e51b815260206004820152601960248201527804d6178696d756d2062617463682073697a652069732031303603c1b60448201526064016104cd565b60005b838110156107bb57600085858381811061060d5761060d6114ba565b90506020020160208101906106229190611395565b6001600160a01b0316036106785760405162461bcd60e51b815260206004820152601d60248201527f43616e6e6f74206275726e2066726f6d207a65726f206164647265737300000060448201526064016104cd565b600083838381811061068c5761068c6114ba565b90506020020135116106e05760405162461bcd60e51b815260206004820152601d60248201527f416d6f756e74206d7573742062652067726561746572207468616e203000000060448201526064016104cd565b6107288585838181106106f5576106f56114ba565b905060200201602081019061070a9190611395565b84848481811061071c5761071c6114ba565b90506020020135610e38565b84848281811061073a5761073a6114ba565b905060200201602081019061074f9190611395565b6001600160a01b03167f4847840e886fff2fb51795fc333e74b8f187068bbd114005b146684e5d91025984848481811061078b5761078b6114ba565b905060200201356040516107a191815260200190565b60405180910390a2806107b3816114e6565b9150506105f1565b5050505050565b6008546001600160a01b038216600090815260096020526040812054909142916107ec91906114ff565b81106107fb5750600092915050565b50506001600160a01b03166000908152600a602052604090205490565b6006546001600160a01b031633146108425760405162461bcd60e51b81526004016104cd9061141d565b8281146108615760405162461bcd60e51b81526004016104cd90611469565b826108a75760405162461bcd60e51b81526020600482015260166024820152754172726179732063616e6e6f7420626520656d70747960501b60448201526064016104cd565b60648311156108f45760405162461bcd60e51b815260206004820152601960248201527804d6178696d756d2062617463682073697a652069732031303603c1b60448201526064016104cd565b60005b838110156107bb576000858583818110610913576109136114ba565b90506020020160208101906109289190611395565b6001600160a01b03160361097e5760405162461bcd60e51b815260206004820152601b60248201527f43616e6e6f74206d696e7420746f207a65726f2061646472657373000000000060448201526064016104cd565b6000838383818110610992576109926114ba565b90506020020135116109e65760405162461bcd60e51b815260206004820152601d60248201527f416d6f756e74206d7573742062652067726561746572207468616e203000000060448201526064016104cd565b610a2e8585838181106109fb576109fb6114ba565b9050602002016020810190610a109190611395565b848484818110610a2257610a226114ba565b90506020020135610e72565b610a76858583818110610a4357610a436114ba565b9050602002016020810190610a589190611395565b848484818110610a6a57610a6a6114ba565b90506020020135610f6d565b848482818110610a8857610a886114ba565b9050602002016020810190610a9d9190611395565b6001600160a01b03167f0f6798a560793a54c3bcfe86a93cde1e73087d944c0ea20544137d4121396885848484818110610ad957610ad96114ba565b90506020020135604051610aef91815260200190565b60405180910390a280610b01816114e6565b9150506108f7565b610b11610e0b565b610b1b6000610fa3565b565b6060600480546103b8906113e3565b610b34610e0b565b60008111610b8e5760405162461bcd60e51b815260206004820152602160248201527f4d696e74206c696d6974206d7573742062652067726561746572207468616e206044820152600360fc1b60648201526084016104cd565b60078190556040518181527fc39a10b7490bc694c922bd6cbef1462b0cbf533e0e4bce081f71702069d12d1c90602001610507565b610bcb610e0b565b600680546001600160a01b0319166001600160a01b0392909216919091179055565b600033610449818585610dac565b6001600160a01b03811660009081526009602052604081205442908290610c229083611512565b90506008548110610c37575060009392505050565b80600854610c459190611512565b949350505050565b610c55610e0b565b6001600160a01b038116610c7f57604051631e4fbdf760e01b8152600060048201526024016104cd565b610c8881610fa3565b50565b6008546001600160a01b03821660009081526009602052604081205490914291610cb591906114ff565b8110610cc5575050600754919050565b6007546001600160a01b0384166000908152600a602052604090205410610cef5750600092915050565b6001600160a01b0383166000908152600a6020526040902054600754610d159190611512565b9392505050565b610d298383836001610ff5565b505050565b6001600160a01b038381166000908152600160209081526040808320938616835292905220546000198114610da65781811015610d9757604051637dc7a0d960e11b81526001600160a01b038416600482015260248101829052604481018390526064016104cd565b610da684848484036000610ff5565b50505050565b6001600160a01b038316610dd657604051634b637e8f60e11b8152600060048201526024016104cd565b6001600160a01b038216610e005760405163ec442f0560e01b8152600060048201526024016104cd565b610d298383836110ca565b6005546001600160a01b03163314610b1b5760405163118cdaa760e01b81523360048201526024016104cd565b6001600160a01b038216610e6257604051634b637e8f60e11b8152600060048201526024016104cd565b610e6e826000836110ca565b5050565b6008546001600160a01b0383166000908152600960205260409020544291610e99916114ff565b8110610eb9576001600160a01b0383166000908152600a60205260408120555b6007546001600160a01b0384166000908152600a6020526040902054610ee09084906114ff565b1115610f2e5760405162461bcd60e51b815260206004820152601960248201527f4d696e7420616d6f756e742065786365656473206c696d69740000000000000060448201526064016104cd565b6001600160a01b0383166000908152600960209081526040808320849055600a90915281208054849290610f639084906114ff565b9091555050505050565b6001600160a01b038216610f975760405163ec442f0560e01b8152600060048201526024016104cd565b610e6e600083836110ca565b600580546001600160a01b038381166001600160a01b0319831681179093556040519116919082907f8be0079c531659141344cd1fd0a4f28419497f9722a3daafe3b4186f6b6457e090600090a35050565b6001600160a01b03841661101f5760405163e602df0560e01b8152600060048201526024016104cd565b6001600160a01b03831661104957604051634a1406b160e11b8152600060048201526024016104cd565b6001600160a01b0380851660009081526001602090815260408083209387168352929052208290558015610da657826001600160a01b0316846001600160a01b03167f8c5be1e5ebec7d5bd14f71427d1e84f3dd0314c0f7b2291e5b200ac8c7c3b925846040516110bc91815260200190565b60405180910390a350505050565b6001600160a01b0383166110f55780600260008282546110ea91906114ff565b909155506111679050565b6001600160a01b038316600090815260208190526040902054818110156111485760405163391434e360e21b81526001600160a01b038516600482015260248101829052604481018390526064016104cd565b6001600160a01b03841660009081526020819052604090209082900390555b6001600160a01b038216611183576002805482900390556111a2565b6001600160a01b03821660009081526020819052604090208054820190555b816001600160a01b0316836001600160a01b03167fddf252ad1be2c89b69c2b068fc378daa952ba7f163c4a11628f55a4df523b3ef836040516111e791815260200190565b60405180910390a3505050565b600060208083528351808285015260005b8181101561122157858101830151858201604001528201611205565b506000604082860101526040601f19601f8301168501019250505092915050565b80356001600160a01b038116811461125957600080fd5b919050565b6000806040838503121561127157600080fd5b61127a83611242565b946020939093013593505050565b60008060006060848603121561129d57600080fd5b6112a684611242565b92506112b460208501611242565b9150604084013590509250925092565b6000602082840312156112d657600080fd5b5035919050565b60008083601f8401126112ef57600080fd5b50813567ffffffffffffffff81111561130757600080fd5b6020830191508360208260051b850101111561132257600080fd5b9250929050565b6000806000806040858703121561133f57600080fd5b843567ffffffffffffffff8082111561135757600080fd5b611363888389016112dd565b9096509450602087013591508082111561137c57600080fd5b50611389878288016112dd565b95989497509550505050565b6000602082840312156113a757600080fd5b610d1582611242565b600080604083850312156113c357600080fd5b6113cc83611242565b91506113da60208401611242565b90509250929050565b600181811c908216806113f757607f821691505b60208210810361141757634e487b7160e01b600052602260045260246000fd5b50919050565b6020808252602c908201527f4f6e6c7920525043204272656164204d696e7465722063616e2063616c6c207460408201526b3434b990333ab731ba34b7b760a11b606082015260800190565b60208082526031908201527f4164647265737320616e6420616d6f756e7420617272617973206d75737420626040820152700ca40e8d0ca40e6c2daca40d8cadccee8d607b1b606082015260800190565b634e487b7160e01b600052603260045260246000fd5b634e487b7160e01b600052601160045260246000fd5b6000600182016114f8576114f86114d0565b5060010190565b8082018082111561044f5761044f6114d0565b8181038181111561044f5761044f6114d056fea2646970667358221220146b4c3de108c69b1f2fc7f7ee2069f309659c0e6b08a4e7030cab7d6dee23e264736f6c63430008140033",
  "devdoc": {
    "errors": {
      "ERC20InsufficientAllowance(address,uint256,uint256)": [
        {
          "details": "Indicates a failure with the `spender`s `allowance`. Used in transfers.",
          "params": {
            "allowance": "Amount of tokens a `spender` is allowed to operate with.",
            "needed": "Minimum amount required to perform a transfer.",
            "spender": "Address that may be allowed to operate on tokens without being their owner."
          }
        }
      ],
      "ERC20InsufficientBalance(address,uint256,uint256)": [
        {
          "details": "Indicates an error related to the current `balance` of a `sender`. Used in transfers.",
          "params": {
            "balance": "Current balance for the interacting account.",
            "needed": "Minimum amount required to perform a transfer.",
            "sender": "Address whose tokens are being transferred."
          }
        }
      ],
      "ERC20InvalidApprover(address)": [
        {
          "details": "Indicates a failure with the `approver` of a token to be approved. Used in approvals.",
          "params": {
            "approver": "Address initiating an approval operation."
          }
        }
      ],
      "ERC20InvalidReceiver(address)": [
        {
          "details": "Indicates a failure with the token `receiver`. Used in transfers.",
          "params": {
            "receiver": "Address to which tokens are being transferred."
          }
        }
      ],
      "ERC20InvalidSender(address)": [
        {
          "details": "Indicates a failure with the token `sender`. Used in transfers.",
          "params": {
            "sender": "Address whose tokens are being transferred."
          }
        }
      ],
      "ERC20InvalidSpender(address)": [
        {
          "details": "Indicates a failure with the `spender` to be approved. Used in approvals.",
          "params": {
            "spender": "Address that may be allowed to operate on tokens without being their owner."
          }
        }
      ],
      "OwnableInvalidOwner(address)": [
        {
          "details": "The owner is not a valid owner account. (eg. `address(0)`)"
        }
      ],
      "OwnableUnauthorizedAccount(address)": [
        {
          "details": "The caller account is not authorized to perform an operation."
        }
      ]
    },
    "events": {
      "Approval(address,address,uint256)": {
        "details": "Emitted when the allowance of a `spender` for an `owner` is set by a call to {approve}. `value` is the new allowance."
      },
      "Transfer(address,address,uint256)": {
        "details": "Emitted when `value` tokens are moved from one account (`from`) to another (`to`). Note that `value` may be zero."
      }
    },
    "kind": "dev",
    "methods": {
      "allowance(address,address)": {
        "details": "See {IERC20-allowance}."
      },
      "approve(address,uint256)": {
        "details": "See {IERC20-approve}. NOTE: If `value` is the maximum `uint256`, the allowance is not updated on `transferFrom`. This is semantically equivalent to an infinite approval. Requirements: - `spender` cannot be the zero address."
      },
      "balanceOf(address)": {
        "details": "See {IERC20-balanceOf}."
      },
      "batchBurn(address[],uint256[])": {
        "details": "Only the authorized RPC Bread Minter can call this functionUsed for penalty burns or other administrative token removalMaximum batch size is 100 to prevent gas issues",
        "params": {
          "addresses": "Array of addresses to burn tokens from",
          "amounts": "Array of amounts to burn (must match addresses array length)"
        }
      },
      "batchMint(address[],uint256[])": {
        "details": "Only the authorized RPC Bread Minter can call this functionEnforces rate limiting for each recipient and validates all inputsMaximum batch size is 100 to prevent gas issues",
        "params": {
          "addresses": "Array of recipient addresses",
          "amounts": "Array of amounts to mint (must match addresses array length)"
        }
      },
      "constructor": {
        "details": "Mints 100,000 tokens to the contract deployer and sets the initial minter address",
        "params": {
          "rpcBreadMinterAddress_": "The address authorized to perform batch mint/burn operations"
        }
      },
      "decimals()": {
        "details": "Returns the number of decimals used to get its user representation. For example, if `decimals` equals `2`, a balance of `505` tokens should be displayed to a user as `5.05` (`505 / 10 ** 2`). Tokens usually opt for a value of 18, imitating the relationship between Ether and Wei. This is the default value returned by this function, unless it's overridden. NOTE: This information is only used for _display_ purposes: it in no way affects any of the arithmetic of the contract, including {IERC20-balanceOf} and {IERC20-transfer}."
      },
      "getMintedInPeriod(address)": {
        "params": {
          "user": "The address to check minted amount for"
        },
        "returns": {
          "_0": "The amount of tokens minted in the current cooldown period (0 if period has reset)"
        }
      },
      "getRemainingCooldown(address)": {
        "params": {
          "user": "The address to check cooldown for"
        },
        "returns": {
          "_0": "The number of seconds remaining in the cooldown period (0 if cooldown has passed)"
        }
      },
      "getRemainingMintAmount(address)": {
        "params": {
          "user": "The address to check remaining mint amount for"
        },
        "returns": {
          "_0": "The amount of tokens that can still be minted (full limit if period has reset)"
        }
      },
      "name()": {
        "details": "Returns the name of the token."
      },
      "owner()": {
        "details": "Returns the address of the current owner."
      },
      "renounceOwnership()": {
        "details": "Leaves the contract without owner. It will not be possible to call `onlyOwner` functions. Can only be called by the current owner. NOTE: Renouncing ownership will leave the contract without an owner, thereby disabling any functionality that is only available to the owner."
      },
      "setMintCooldown(uint256)": {
        "details": "Only the contract owner can call this function. Cooldown must be greater than 0",
        "params": {
          "newCooldown": "The new cooldown period in seconds"
        }
      },
      "setMintLimit(uint256)": {
        "details": "Only the contract owner can call this function. Limit must be greater than 0",
        "params": {
          "newLimit": "The new mint limit in wei (with 18 decimals)"
        }
      },
      "setRpcBreadMinterAddress(address)": {
        "details": "Only the contract owner can call this function",
        "params": {
          "newAddress": "The new address that will be authorized to perform batch operations"
        }
      },
      "symbol()": {
        "details": "Returns the symbol of the token, usually a shorter version of the name."
      },
      "totalSupply()": {
        "details": "See {IERC20-totalSupply}."
      },
      "transfer(address,uint256)": {
        "details": "See {IERC20-transfer}. Requirements: - `to` cannot be the zero address. - the caller must have a balance of at least `value`."
      },
      "transferFrom(address,address,uint256)": {
        "details": "See {IERC20-transferFrom}. Emits an {Approval} event indicating the updated allowance. This is not required by the EIP. See the note at the beginning of {ERC20}. NOTE: Does not update the allowance if the current allowance is the maximum `uint256`. Requirements: - `from` and `to` cannot be the zero address. - `from` must have a balance of at least `value`. - the caller must have allowance for ``from``'s tokens of at least `value`."
      },
      "transferOwnership(address)": {
        "details": "Transfers ownership of the contract to a new account (`newOwner`). Can only be called by the current owner."
      }
    },
    "version": 1
  },
  "userdoc": {
    "kind": "user",
    "methods": {
      "batchBurn(address[],uint256[])": {
        "notice": "Burns tokens from multiple addresses in a single transaction"
      },
      "batchMint(address[],uint256[])": {
        "notice": "Mints tokens to multiple addresses in a single transaction"
      },
      "getMintedInPeriod(address)": {
        "notice": "Returns the amount of tokens minted by a user in the current period"
      },
      "getRemainingCooldown(address)": {
        "notice": "Returns the remaining cooldown time for a user before they can mint again"
      },
      "getRemainingMintAmount(address)": {
        "notice": "Returns the remaining amount that can be minted by a user in the current period"
      },
      "setMintCooldown(uint256)": {
        "notice": "Sets the cooldown period between mint limit resets"
      },
      "setMintLimit(uint256)": {
        "notice": "Sets the maximum amount that can be minted per cooldown period"
      },
      "setRpcBreadMinterAddress(address)": {
        "notice": "Updates the RPC Bread Minter address"
      }
    },
    "version": 1
  },
  "storageLayout": {
    "storage": [
      {
        "astId": 307,
        "contract": "contracts/BuidlGuidlBread.sol:BuidlGuidlBread",
        "label": "_balances",
        "offset": 0,
        "slot": "0",
        "type": "t_mapping(t_address,t_uint256)"
      },
      {
        "astId": 313,
        "contract": "contracts/BuidlGuidlBread.sol:BuidlGuidlBread",
        "label": "_allowances",
        "offset": 0,
        "slot": "1",
        "type": "t_mapping(t_address,t_mapping(t_address,t_uint256))"
      },
      {
        "astId": 315,
        "contract": "contracts/BuidlGuidlBread.sol:BuidlGuidlBread",
        "label": "_totalSupply",
        "offset": 0,
        "slot": "2",
        "type": "t_uint256"
      },
      {
        "astId": 317,
        "contract": "contracts/BuidlGuidlBread.sol:BuidlGuidlBread",
        "label": "_name",
        "offset": 0,
        "slot": "3",
        "type": "t_string_storage"
      },
      {
        "astId": 319,
        "contract": "contracts/BuidlGuidlBread.sol:BuidlGuidlBread",
        "label": "_symbol",
        "offset": 0,
        "slot": "4",
        "type": "t_string_storage"
      },
      {
        "astId": 8,
        "contract": "contracts/BuidlGuidlBread.sol:BuidlGuidlBread",
        "label": "_owner",
        "offset": 0,
        "slot": "5",
        "type": "t_address"
      },
      {
        "astId": 963,
        "contract": "contracts/BuidlGuidlBread.sol:BuidlGuidlBread",
        "label": "rpcBreadMinterAddress",
        "offset": 0,
        "slot": "6",
        "type": "t_address"
      },
      {
        "astId": 970,
        "contract": "contracts/BuidlGuidlBread.sol:BuidlGuidlBread",
        "label": "mintLimit",
        "offset": 0,
        "slot": "7",
        "type": "t_uint256"
      },
      {
        "astId": 973,
        "contract": "contracts/BuidlGuidlBread.sol:BuidlGuidlBread",
        "label": "mintCooldown",
        "offset": 0,
        "slot": "8",
        "type": "t_uint256"
      },
      {
        "astId": 977,
        "contract": "contracts/BuidlGuidlBread.sol:BuidlGuidlBread",
        "label": "lastMintTime",
        "offset": 0,
        "slot": "9",
        "type": "t_mapping(t_address,t_uint256)"
      },
      {
        "astId": 981,
        "contract": "contracts/BuidlGuidlBread.sol:BuidlGuidlBread",
        "label": "mintedInPeriod",
        "offset": 0,
        "slot": "10",
        "type": "t_mapping(t_address,t_uint256)"
      }
    ],
    "types": {
      "t_address": {
        "encoding": "inplace",
        "label": "address",
        "numberOfBytes": "20"
      },
      "t_mapping(t_address,t_mapping(t_address,t_uint256))": {
        "encoding": "mapping",
        "key": "t_address",
        "label": "mapping(address => mapping(address => uint256))",
        "numberOfBytes": "32",
        "value": "t_mapping(t_address,t_uint256)"
      },
      "t_mapping(t_address,t_uint256)": {
        "encoding": "mapping",
        "key": "t_address",
        "label": "mapping(address => uint256)",
        "numberOfBytes": "32",
        "value": "t_uint256"
      },
      "t_string_storage": {
        "encoding": "bytes",
        "label": "string",
        "numberOfBytes": "32"
      },
      "t_uint256": {
        "encoding": "inplace",
        "label": "uint256",
        "numberOfBytes": "32"
      }
    }
  }
}