{
  "address": "0xeD76501D4Ee9847bf34C92D320E5aF46138a9bA4",
  "abi": [
    {
      "inputs": [
        {
          "internalType": "address",
          "name": "rpcBreadMinterAddress_",
          "type": "address"
        }
      ],
      "stateMutability": "nonpayable",
      "type": "constructor"
    },
    {
      "inputs": [
        {
          "internalType": "address",
          "name": "spender",
          "type": "address"
        },
        {
          "internalType": "uint256",
          "name": "allowance",
          "type": "uint256"
        },
        {
          "internalType": "uint256",
          "name": "needed",
          "type": "uint256"
        }
      ],
      "name": "ERC20InsufficientAllowance",
      "type": "error"
    },
    {
      "inputs": [
        {
          "internalType": "address",
          "name": "sender",
          "type": "address"
        },
        {
          "internalType": "uint256",
          "name": "balance",
          "type": "uint256"
        },
        {
          "internalType": "uint256",
          "name": "needed",
          "type": "uint256"
        }
      ],
      "name": "ERC20InsufficientBalance",
      "type": "error"
    },
    {
      "inputs": [
        {
          "internalType": "address",
          "name": "approver",
          "type": "address"
        }
      ],
      "name": "ERC20InvalidApprover",
      "type": "error"
    },
    {
      "inputs": [
        {
          "internalType": "address",
          "name": "receiver",
          "type": "address"
        }
      ],
      "name": "ERC20InvalidReceiver",
      "type": "error"
    },
    {
      "inputs": [
        {
          "internalType": "address",
          "name": "sender",
          "type": "address"
        }
      ],
      "name": "ERC20InvalidSender",
      "type": "error"
    },
    {
      "inputs": [
        {
          "internalType": "address",
          "name": "spender",
          "type": "address"
        }
      ],
      "name": "ERC20InvalidSpender",
      "type": "error"
    },
    {
      "anonymous": false,
      "inputs": [
        {
          "indexed": true,
          "internalType": "address",
          "name": "owner",
          "type": "address"
        },
        {
          "indexed": true,
          "internalType": "address",
          "name": "spender",
          "type": "address"
        },
        {
          "indexed": false,
          "internalType": "uint256",
          "name": "value",
          "type": "uint256"
        }
      ],
      "name": "Approval",
      "type": "event"
    },
    {
      "anonymous": false,
      "inputs": [
        {
          "indexed": true,
          "internalType": "address",
          "name": "user",
          "type": "address"
        },
        {
          "indexed": false,
          "internalType": "uint256",
          "name": "amount",
          "type": "uint256"
        }
      ],
      "name": "Mint",
      "type": "event"
    },
    {
      "anonymous": false,
      "inputs": [
        {
          "indexed": true,
          "internalType": "address",
          "name": "from",
          "type": "address"
        },
        {
          "indexed": true,
          "internalType": "address",
          "name": "to",
          "type": "address"
        },
        {
          "indexed": false,
          "internalType": "uint256",
          "name": "value",
          "type": "uint256"
        }
      ],
      "name": "Transfer",
      "type": "event"
    },
    {
      "inputs": [
        {
          "internalType": "address",
          "name": "owner",
          "type": "address"
        },
        {
          "internalType": "address",
          "name": "spender",
          "type": "address"
        }
      ],
      "name": "allowance",
      "outputs": [
        {
          "internalType": "uint256",
          "name": "",
          "type": "uint256"
        }
      ],
      "stateMutability": "view",
      "type": "function"
    },
    {
      "inputs": [
        {
          "internalType": "address",
          "name": "spender",
          "type": "address"
        },
        {
          "internalType": "uint256",
          "name": "value",
          "type": "uint256"
        }
      ],
      "name": "approve",
      "outputs": [
        {
          "internalType": "bool",
          "name": "",
          "type": "bool"
        }
      ],
      "stateMutability": "nonpayable",
      "type": "function"
    },
    {
      "inputs": [
        {
          "internalType": "address",
          "name": "account",
          "type": "address"
        }
      ],
      "name": "balanceOf",
      "outputs": [
        {
          "internalType": "uint256",
          "name": "",
          "type": "uint256"
        }
      ],
      "stateMutability": "view",
      "type": "function"
    },
    {
      "inputs": [
        {
          "internalType": "address[]",
          "name": "addresses",
          "type": "address[]"
        },
        {
          "internalType": "uint256[]",
          "name": "amounts",
          "type": "uint256[]"
        }
      ],
      "name": "batchMint",
      "outputs": [],
      "stateMutability": "nonpayable",
      "type": "function"
    },
    {
      "inputs": [],
      "name": "decimals",
      "outputs": [
        {
          "internalType": "uint8",
          "name": "",
          "type": "uint8"
        }
      ],
      "stateMutability": "view",
      "type": "function"
    },
    {
      "inputs": [
        {
          "internalType": "address",
          "name": "to",
          "type": "address"
        },
        {
          "internalType": "uint256",
          "name": "amount",
          "type": "uint256"
        }
      ],
      "name": "mint",
      "outputs": [],
      "stateMutability": "nonpayable",
      "type": "function"
    },
    {
      "inputs": [],
      "name": "name",
      "outputs": [
        {
          "internalType": "string",
          "name": "",
          "type": "string"
        }
      ],
      "stateMutability": "view",
      "type": "function"
    },
    {
      "inputs": [],
      "name": "rpcBreadMinterAddress",
      "outputs": [
        {
          "internalType": "address",
          "name": "",
          "type": "address"
        }
      ],
      "stateMutability": "view",
      "type": "function"
    },
    {
      "inputs": [],
      "name": "symbol",
      "outputs": [
        {
          "internalType": "string",
          "name": "",
          "type": "string"
        }
      ],
      "stateMutability": "view",
      "type": "function"
    },
    {
      "inputs": [],
      "name": "totalSupply",
      "outputs": [
        {
          "internalType": "uint256",
          "name": "",
          "type": "uint256"
        }
      ],
      "stateMutability": "view",
      "type": "function"
    },
    {
      "inputs": [
        {
          "internalType": "address",
          "name": "to",
          "type": "address"
        },
        {
          "internalType": "uint256",
          "name": "value",
          "type": "uint256"
        }
      ],
      "name": "transfer",
      "outputs": [
        {
          "internalType": "bool",
          "name": "",
          "type": "bool"
        }
      ],
      "stateMutability": "nonpayable",
      "type": "function"
    },
    {
      "inputs": [
        {
          "internalType": "address",
          "name": "from",
          "type": "address"
        },
        {
          "internalType": "address",
          "name": "to",
          "type": "address"
        },
        {
          "internalType": "uint256",
          "name": "value",
          "type": "uint256"
        }
      ],
      "name": "transferFrom",
      "outputs": [
        {
          "internalType": "bool",
          "name": "",
          "type": "bool"
        }
      ],
      "stateMutability": "nonpayable",
      "type": "function"
    }
  ],
  "transactionHash": "0xcfdec6ac83285a5aa77d1ab26b94de0c4e6169952ed7d9ae3d70945d9413585a",
  "args": [
    "0xaC9A4652dF3878d24f35A6a6c022544aeE9748Ff"
  ],
  "numDeployments": 1,
  "solcInputHash": "d140c7dfbb5434e1e630f38c4e74c439",
  "bytecode": "0x60806040523480156200001157600080fd5b5060405162000ef138038062000ef18339810160408190526200003491620000b8565b60405180604001604052806005815260200164109c99585960da1b8152506040518060400160405280600381526020016210949160ea1b81525081600390816200007f91906200018f565b5060046200008e82826200018f565b5050600580546001600160a01b0319166001600160a01b039390931692909217909155506200025b565b600060208284031215620000cb57600080fd5b81516001600160a01b0381168114620000e357600080fd5b9392505050565b634e487b7160e01b600052604160045260246000fd5b600181811c908216806200011557607f821691505b6020821081036200013657634e487b7160e01b600052602260045260246000fd5b50919050565b601f8211156200018a57600081815260208120601f850160051c81016020861015620001655750805b601f850160051c820191505b81811015620001865782815560010162000171565b5050505b505050565b81516001600160401b03811115620001ab57620001ab620000ea565b620001c381620001bc845462000100565b846200013c565b602080601f831160018114620001fb5760008415620001e25750858301515b600019600386901b1c1916600185901b17855562000186565b600085815260208120601f198616915b828110156200022c578886015182559484019460019091019084016200020b565b50858210156200024b5787850151600019600388901b60f8161c191681555b5050505050600190811b01905550565b610c86806200026b6000396000f3fe608060405234801561001057600080fd5b50600436106100b45760003560e01c80636857310711610071578063685731071461014357806370a082311461015657806395d89b411461017f578063a84bea9714610187578063a9059cbb146101b2578063dd62ed3e146101c557600080fd5b806306fdde03146100b9578063095ea7b3146100d757806318160ddd146100fa57806323b872dd1461010c578063313ce5671461011f57806340c10f191461012e575b600080fd5b6100c16101fe565b6040516100ce9190610995565b60405180910390f35b6100ea6100e53660046109ff565b610290565b60405190151581526020016100ce565b6002545b6040519081526020016100ce565b6100ea61011a366004610a29565b6102aa565b604051601281526020016100ce565b61014161013c3660046109ff565b6102ce565b005b610141610151366004610ab1565b610352565b6100fe610164366004610b1d565b6001600160a01b031660009081526020819052604090205490565b6100c1610650565b60055461019a906001600160a01b031681565b6040516001600160a01b0390911681526020016100ce565b6100ea6101c03660046109ff565b61065f565b6100fe6101d3366004610b3f565b6001600160a01b03918216600090815260016020908152604080832093909416825291909152205490565b60606003805461020d90610b72565b80601f016020809104026020016040519081016040528092919081815260200182805461023990610b72565b80156102865780601f1061025b57610100808354040283529160200191610286565b820191906000526020600020905b81548152906001019060200180831161026957829003601f168201915b5050505050905090565b60003361029e81858561066d565b60019150505b92915050565b6000336102b885828561067f565b6102c38585856106fd565b506001949350505050565b6005546001600160a01b031633146103015760405162461bcd60e51b81526004016102f890610bac565b60405180910390fd5b61030b828261075c565b816001600160a01b03167f0f6798a560793a54c3bcfe86a93cde1e73087d944c0ea20544137d41213968858260405161034691815260200190565b60405180910390a25050565b6005546001600160a01b0316331461037c5760405162461bcd60e51b81526004016102f890610bac565b8281146103e55760405162461bcd60e51b815260206004820152603160248201527f4164647265737320616e6420616d6f756e7420617272617973206d75737420626044820152700ca40e8d0ca40e6c2daca40d8cadccee8d607b1b60648201526084016102f8565b8261042b5760405162461bcd60e51b81526020600482015260166024820152754172726179732063616e6e6f7420626520656d70747960501b60448201526064016102f8565b606483111561047c5760405162461bcd60e51b815260206004820152601960248201527f4d6178696d756d2062617463682073697a65206973203130300000000000000060448201526064016102f8565b60005b8381101561064957600085858381811061049b5761049b610bf8565b90506020020160208101906104b09190610b1d565b6001600160a01b0316036105065760405162461bcd60e51b815260206004820152601b60248201527f43616e6e6f74206d696e7420746f207a65726f2061646472657373000000000060448201526064016102f8565b600083838381811061051a5761051a610bf8565b905060200201351161056e5760405162461bcd60e51b815260206004820152601d60248201527f416d6f756e74206d7573742062652067726561746572207468616e203000000060448201526064016102f8565b6105b685858381811061058357610583610bf8565b90506020020160208101906105989190610b1d565b8484848181106105aa576105aa610bf8565b9050602002013561075c565b8484828181106105c8576105c8610bf8565b90506020020160208101906105dd9190610b1d565b6001600160a01b03167f0f6798a560793a54c3bcfe86a93cde1e73087d944c0ea20544137d412139688584848481811061061957610619610bf8565b9050602002013560405161062f91815260200190565b60405180910390a28061064181610c24565b91505061047f565b5050505050565b60606004805461020d90610b72565b60003361029e8185856106fd565b61067a8383836001610796565b505050565b6001600160a01b0383811660009081526001602090815260408083209386168352929052205460001981146106f757818110156106e857604051637dc7a0d960e11b81526001600160a01b038416600482015260248101829052604481018390526064016102f8565b6106f784848484036000610796565b50505050565b6001600160a01b03831661072757604051634b637e8f60e11b8152600060048201526024016102f8565b6001600160a01b0382166107515760405163ec442f0560e01b8152600060048201526024016102f8565b61067a83838361086b565b6001600160a01b0382166107865760405163ec442f0560e01b8152600060048201526024016102f8565b6107926000838361086b565b5050565b6001600160a01b0384166107c05760405163e602df0560e01b8152600060048201526024016102f8565b6001600160a01b0383166107ea57604051634a1406b160e11b8152600060048201526024016102f8565b6001600160a01b03808516600090815260016020908152604080832093871683529290522082905580156106f757826001600160a01b0316846001600160a01b03167f8c5be1e5ebec7d5bd14f71427d1e84f3dd0314c0f7b2291e5b200ac8c7c3b9258460405161085d91815260200190565b60405180910390a350505050565b6001600160a01b03831661089657806002600082825461088b9190610c3d565b909155506109089050565b6001600160a01b038316600090815260208190526040902054818110156108e95760405163391434e360e21b81526001600160a01b038516600482015260248101829052604481018390526064016102f8565b6001600160a01b03841660009081526020819052604090209082900390555b6001600160a01b03821661092457600280548290039055610943565b6001600160a01b03821660009081526020819052604090208054820190555b816001600160a01b0316836001600160a01b03167fddf252ad1be2c89b69c2b068fc378daa952ba7f163c4a11628f55a4df523b3ef8360405161098891815260200190565b60405180910390a3505050565b600060208083528351808285015260005b818110156109c2578581018301518582016040015282016109a6565b506000604082860101526040601f19601f8301168501019250505092915050565b80356001600160a01b03811681146109fa57600080fd5b919050565b60008060408385031215610a1257600080fd5b610a1b836109e3565b946020939093013593505050565b600080600060608486031215610a3e57600080fd5b610a47846109e3565b9250610a55602085016109e3565b9150604084013590509250925092565b60008083601f840112610a7757600080fd5b50813567ffffffffffffffff811115610a8f57600080fd5b6020830191508360208260051b8501011115610aaa57600080fd5b9250929050565b60008060008060408587031215610ac757600080fd5b843567ffffffffffffffff80821115610adf57600080fd5b610aeb88838901610a65565b90965094506020870135915080821115610b0457600080fd5b50610b1187828801610a65565b95989497509550505050565b600060208284031215610b2f57600080fd5b610b38826109e3565b9392505050565b60008060408385031215610b5257600080fd5b610b5b836109e3565b9150610b69602084016109e3565b90509250929050565b600181811c90821680610b8657607f821691505b602082108103610ba657634e487b7160e01b600052602260045260246000fd5b50919050565b6020808252602c908201527f4f6e6c7920525043204272656164204d696e7465722063616e2063616c6c207460408201526b3434b990333ab731ba34b7b760a11b606082015260800190565b634e487b7160e01b600052603260045260246000fd5b634e487b7160e01b600052601160045260246000fd5b600060018201610c3657610c36610c0e565b5060010190565b808201808211156102a4576102a4610c0e56fea26469706673582212207edbfd86ec229a86489d035d9f5870ff0cc3dddf2bfdd1230059504a2c2ab50864736f6c63430008140033",
  "devdoc": {
    "errors": {
      "ERC20InsufficientAllowance(address,uint256,uint256)": [
        {
          "details": "Indicates a failure with the `spender`s `allowance`. Used in transfers.",
          "params": {
            "allowance": "Amount of tokens a `spender` is allowed to operate with.",
            "needed": "Minimum amount required to perform a transfer.",
            "spender": "Address that may be allowed to operate on tokens without being their owner."
          }
        }
      ],
      "ERC20InsufficientBalance(address,uint256,uint256)": [
        {
          "details": "Indicates an error related to the current `balance` of a `sender`. Used in transfers.",
          "params": {
            "balance": "Current balance for the interacting account.",
            "needed": "Minimum amount required to perform a transfer.",
            "sender": "Address whose tokens are being transferred."
          }
        }
      ],
      "ERC20InvalidApprover(address)": [
        {
          "details": "Indicates a failure with the `approver` of a token to be approved. Used in approvals.",
          "params": {
            "approver": "Address initiating an approval operation."
          }
        }
      ],
      "ERC20InvalidReceiver(address)": [
        {
          "details": "Indicates a failure with the token `receiver`. Used in transfers.",
          "params": {
            "receiver": "Address to which tokens are being transferred."
          }
        }
      ],
      "ERC20InvalidSender(address)": [
        {
          "details": "Indicates a failure with the token `sender`. Used in transfers.",
          "params": {
            "sender": "Address whose tokens are being transferred."
          }
        }
      ],
      "ERC20InvalidSpender(address)": [
        {
          "details": "Indicates a failure with the `spender` to be approved. Used in approvals.",
          "params": {
            "spender": "Address that may be allowed to operate on tokens without being their owner."
          }
        }
      ]
    },
    "events": {
      "Approval(address,address,uint256)": {
        "details": "Emitted when the allowance of a `spender` for an `owner` is set by a call to {approve}. `value` is the new allowance."
      },
      "Transfer(address,address,uint256)": {
        "details": "Emitted when `value` tokens are moved from one account (`from`) to another (`to`). Note that `value` may be zero."
      }
    },
    "kind": "dev",
    "methods": {
      "allowance(address,address)": {
        "details": "See {IERC20-allowance}."
      },
      "approve(address,uint256)": {
        "details": "See {IERC20-approve}. NOTE: If `value` is the maximum `uint256`, the allowance is not updated on `transferFrom`. This is semantically equivalent to an infinite approval. Requirements: - `spender` cannot be the zero address."
      },
      "balanceOf(address)": {
        "details": "See {IERC20-balanceOf}."
      },
      "decimals()": {
        "details": "Returns the number of decimals used to get its user representation. For example, if `decimals` equals `2`, a balance of `505` tokens should be displayed to a user as `5.05` (`505 / 10 ** 2`). Tokens usually opt for a value of 18, imitating the relationship between Ether and Wei. This is the default value returned by this function, unless it's overridden. NOTE: This information is only used for _display_ purposes: it in no way affects any of the arithmetic of the contract, including {IERC20-balanceOf} and {IERC20-transfer}."
      },
      "name()": {
        "details": "Returns the name of the token."
      },
      "symbol()": {
        "details": "Returns the symbol of the token, usually a shorter version of the name."
      },
      "totalSupply()": {
        "details": "See {IERC20-totalSupply}."
      },
      "transfer(address,uint256)": {
        "details": "See {IERC20-transfer}. Requirements: - `to` cannot be the zero address. - the caller must have a balance of at least `value`."
      },
      "transferFrom(address,address,uint256)": {
        "details": "See {IERC20-transferFrom}. Emits an {Approval} event indicating the updated allowance. This is not required by the EIP. See the note at the beginning of {ERC20}. NOTE: Does not update the allowance if the current allowance is the maximum `uint256`. Requirements: - `from` and `to` cannot be the zero address. - `from` must have a balance of at least `value`. - the caller must have allowance for ``from``'s tokens of at least `value`."
      }
    },
    "version": 1
  },
  "userdoc": {
    "kind": "user",
    "methods": {},
    "version": 1
  },
  "storageLayout": {
    "storage": [
      {
        "astId": 159,
        "contract": "contracts/Bread.sol:Bread",
        "label": "_balances",
        "offset": 0,
        "slot": "0",
        "type": "t_mapping(t_address,t_uint256)"
      },
      {
        "astId": 165,
        "contract": "contracts/Bread.sol:Bread",
        "label": "_allowances",
        "offset": 0,
        "slot": "1",
        "type": "t_mapping(t_address,t_mapping(t_address,t_uint256))"
      },
      {
        "astId": 167,
        "contract": "contracts/Bread.sol:Bread",
        "label": "_totalSupply",
        "offset": 0,
        "slot": "2",
        "type": "t_uint256"
      },
      {
        "astId": 169,
        "contract": "contracts/Bread.sol:Bread",
        "label": "_name",
        "offset": 0,
        "slot": "3",
        "type": "t_string_storage"
      },
      {
        "astId": 171,
        "contract": "contracts/Bread.sol:Bread",
        "label": "_symbol",
        "offset": 0,
        "slot": "4",
        "type": "t_string_storage"
      },
      {
        "astId": 798,
        "contract": "contracts/Bread.sol:Bread",
        "label": "rpcBreadMinterAddress",
        "offset": 0,
        "slot": "5",
        "type": "t_address"
      }
    ],
    "types": {
      "t_address": {
        "encoding": "inplace",
        "label": "address",
        "numberOfBytes": "20"
      },
      "t_mapping(t_address,t_mapping(t_address,t_uint256))": {
        "encoding": "mapping",
        "key": "t_address",
        "label": "mapping(address => mapping(address => uint256))",
        "numberOfBytes": "32",
        "value": "t_mapping(t_address,t_uint256)"
      },
      "t_mapping(t_address,t_uint256)": {
        "encoding": "mapping",
        "key": "t_address",
        "label": "mapping(address => uint256)",
        "numberOfBytes": "32",
        "value": "t_uint256"
      },
      "t_string_storage": {
        "encoding": "bytes",
        "label": "string",
        "numberOfBytes": "32"
      },
      "t_uint256": {
        "encoding": "inplace",
        "label": "uint256",
        "numberOfBytes": "32"
      }
    }
  }
}