{
  "address": "0xE20a0e016c84C9683B5F258f3ECCb0B365ffB8Fa",
  "abi": [
    {
      "inputs": [
        {
          "internalType": "address",
          "name": "rpcBreadMinterAddress_",
          "type": "address"
        }
      ],
      "stateMutability": "nonpayable",
      "type": "constructor"
    },
    {
      "inputs": [
        {
          "internalType": "address",
          "name": "spender",
          "type": "address"
        },
        {
          "internalType": "uint256",
          "name": "allowance",
          "type": "uint256"
        },
        {
          "internalType": "uint256",
          "name": "needed",
          "type": "uint256"
        }
      ],
      "name": "ERC20InsufficientAllowance",
      "type": "error"
    },
    {
      "inputs": [
        {
          "internalType": "address",
          "name": "sender",
          "type": "address"
        },
        {
          "internalType": "uint256",
          "name": "balance",
          "type": "uint256"
        },
        {
          "internalType": "uint256",
          "name": "needed",
          "type": "uint256"
        }
      ],
      "name": "ERC20InsufficientBalance",
      "type": "error"
    },
    {
      "inputs": [
        {
          "internalType": "address",
          "name": "approver",
          "type": "address"
        }
      ],
      "name": "ERC20InvalidApprover",
      "type": "error"
    },
    {
      "inputs": [
        {
          "internalType": "address",
          "name": "receiver",
          "type": "address"
        }
      ],
      "name": "ERC20InvalidReceiver",
      "type": "error"
    },
    {
      "inputs": [
        {
          "internalType": "address",
          "name": "sender",
          "type": "address"
        }
      ],
      "name": "ERC20InvalidSender",
      "type": "error"
    },
    {
      "inputs": [
        {
          "internalType": "address",
          "name": "spender",
          "type": "address"
        }
      ],
      "name": "ERC20InvalidSpender",
      "type": "error"
    },
    {
      "inputs": [
        {
          "internalType": "address",
          "name": "owner",
          "type": "address"
        }
      ],
      "name": "OwnableInvalidOwner",
      "type": "error"
    },
    {
      "inputs": [
        {
          "internalType": "address",
          "name": "account",
          "type": "address"
        }
      ],
      "name": "OwnableUnauthorizedAccount",
      "type": "error"
    },
    {
      "anonymous": false,
      "inputs": [
        {
          "indexed": true,
          "internalType": "address",
          "name": "owner",
          "type": "address"
        },
        {
          "indexed": true,
          "internalType": "address",
          "name": "spender",
          "type": "address"
        },
        {
          "indexed": false,
          "internalType": "uint256",
          "name": "value",
          "type": "uint256"
        }
      ],
      "name": "Approval",
      "type": "event"
    },
    {
      "anonymous": false,
      "inputs": [
        {
          "indexed": false,
          "internalType": "uint256",
          "name": "newCooldown",
          "type": "uint256"
        }
      ],
      "name": "CooldownUpdated",
      "type": "event"
    },
    {
      "anonymous": false,
      "inputs": [
        {
          "indexed": true,
          "internalType": "address",
          "name": "user",
          "type": "address"
        },
        {
          "indexed": false,
          "internalType": "uint256",
          "name": "currentTime",
          "type": "uint256"
        },
        {
          "indexed": false,
          "internalType": "uint256",
          "name": "lastMintTime",
          "type": "uint256"
        },
        {
          "indexed": false,
          "internalType": "uint256",
          "name": "timeSinceLastMint",
          "type": "uint256"
        },
        {
          "indexed": false,
          "internalType": "uint256",
          "name": "remainingCooldown",
          "type": "uint256"
        }
      ],
      "name": "DebugCooldown",
      "type": "event"
    },
    {
      "anonymous": false,
      "inputs": [
        {
          "indexed": true,
          "internalType": "address",
          "name": "user",
          "type": "address"
        },
        {
          "indexed": false,
          "internalType": "uint256",
          "name": "currentTime",
          "type": "uint256"
        },
        {
          "indexed": false,
          "internalType": "uint256",
          "name": "lastMintTime",
          "type": "uint256"
        },
        {
          "indexed": false,
          "internalType": "uint256",
          "name": "cooldown",
          "type": "uint256"
        }
      ],
      "name": "DebugTime",
      "type": "event"
    },
    {
      "anonymous": false,
      "inputs": [
        {
          "indexed": true,
          "internalType": "address",
          "name": "user",
          "type": "address"
        },
        {
          "indexed": false,
          "internalType": "uint256",
          "name": "amount",
          "type": "uint256"
        }
      ],
      "name": "Mint",
      "type": "event"
    },
    {
      "anonymous": false,
      "inputs": [
        {
          "indexed": false,
          "internalType": "uint256",
          "name": "newLimit",
          "type": "uint256"
        }
      ],
      "name": "MintLimitUpdated",
      "type": "event"
    },
    {
      "anonymous": false,
      "inputs": [
        {
          "indexed": true,
          "internalType": "address",
          "name": "previousOwner",
          "type": "address"
        },
        {
          "indexed": true,
          "internalType": "address",
          "name": "newOwner",
          "type": "address"
        }
      ],
      "name": "OwnershipTransferred",
      "type": "event"
    },
    {
      "anonymous": false,
      "inputs": [
        {
          "indexed": true,
          "internalType": "address",
          "name": "target",
          "type": "address"
        },
        {
          "indexed": false,
          "internalType": "uint256",
          "name": "amount",
          "type": "uint256"
        }
      ],
      "name": "PenaltyBurn",
      "type": "event"
    },
    {
      "anonymous": false,
      "inputs": [
        {
          "indexed": true,
          "internalType": "address",
          "name": "from",
          "type": "address"
        },
        {
          "indexed": true,
          "internalType": "address",
          "name": "to",
          "type": "address"
        },
        {
          "indexed": false,
          "internalType": "uint256",
          "name": "value",
          "type": "uint256"
        }
      ],
      "name": "Transfer",
      "type": "event"
    },
    {
      "inputs": [
        {
          "internalType": "address",
          "name": "owner",
          "type": "address"
        },
        {
          "internalType": "address",
          "name": "spender",
          "type": "address"
        }
      ],
      "name": "allowance",
      "outputs": [
        {
          "internalType": "uint256",
          "name": "",
          "type": "uint256"
        }
      ],
      "stateMutability": "view",
      "type": "function"
    },
    {
      "inputs": [
        {
          "internalType": "address",
          "name": "spender",
          "type": "address"
        },
        {
          "internalType": "uint256",
          "name": "value",
          "type": "uint256"
        }
      ],
      "name": "approve",
      "outputs": [
        {
          "internalType": "bool",
          "name": "",
          "type": "bool"
        }
      ],
      "stateMutability": "nonpayable",
      "type": "function"
    },
    {
      "inputs": [
        {
          "internalType": "address",
          "name": "account",
          "type": "address"
        }
      ],
      "name": "balanceOf",
      "outputs": [
        {
          "internalType": "uint256",
          "name": "",
          "type": "uint256"
        }
      ],
      "stateMutability": "view",
      "type": "function"
    },
    {
      "inputs": [
        {
          "internalType": "address[]",
          "name": "addresses",
          "type": "address[]"
        },
        {
          "internalType": "uint256[]",
          "name": "amounts",
          "type": "uint256[]"
        }
      ],
      "name": "batchBurn",
      "outputs": [],
      "stateMutability": "nonpayable",
      "type": "function"
    },
    {
      "inputs": [
        {
          "internalType": "address[]",
          "name": "addresses",
          "type": "address[]"
        },
        {
          "internalType": "uint256[]",
          "name": "amounts",
          "type": "uint256[]"
        }
      ],
      "name": "batchMint",
      "outputs": [],
      "stateMutability": "nonpayable",
      "type": "function"
    },
    {
      "inputs": [
        {
          "internalType": "address",
          "name": "user",
          "type": "address"
        }
      ],
      "name": "debugCooldown",
      "outputs": [
        {
          "internalType": "uint256",
          "name": "",
          "type": "uint256"
        }
      ],
      "stateMutability": "nonpayable",
      "type": "function"
    },
    {
      "inputs": [],
      "name": "decimals",
      "outputs": [
        {
          "internalType": "uint8",
          "name": "",
          "type": "uint8"
        }
      ],
      "stateMutability": "view",
      "type": "function"
    },
    {
      "inputs": [
        {
          "internalType": "address",
          "name": "user",
          "type": "address"
        }
      ],
      "name": "getMintedInPeriod",
      "outputs": [
        {
          "internalType": "uint256",
          "name": "",
          "type": "uint256"
        }
      ],
      "stateMutability": "view",
      "type": "function"
    },
    {
      "inputs": [
        {
          "internalType": "address",
          "name": "user",
          "type": "address"
        }
      ],
      "name": "getRemainingCooldown",
      "outputs": [
        {
          "internalType": "uint256",
          "name": "",
          "type": "uint256"
        }
      ],
      "stateMutability": "view",
      "type": "function"
    },
    {
      "inputs": [
        {
          "internalType": "address",
          "name": "user",
          "type": "address"
        }
      ],
      "name": "getRemainingMintAmount",
      "outputs": [
        {
          "internalType": "uint256",
          "name": "",
          "type": "uint256"
        }
      ],
      "stateMutability": "view",
      "type": "function"
    },
    {
      "inputs": [
        {
          "internalType": "address",
          "name": "",
          "type": "address"
        }
      ],
      "name": "lastMintTime",
      "outputs": [
        {
          "internalType": "uint256",
          "name": "",
          "type": "uint256"
        }
      ],
      "stateMutability": "view",
      "type": "function"
    },
    {
      "inputs": [
        {
          "internalType": "address",
          "name": "to",
          "type": "address"
        },
        {
          "internalType": "uint256",
          "name": "amount",
          "type": "uint256"
        }
      ],
      "name": "mint",
      "outputs": [],
      "stateMutability": "nonpayable",
      "type": "function"
    },
    {
      "inputs": [],
      "name": "mintCooldown",
      "outputs": [
        {
          "internalType": "uint256",
          "name": "",
          "type": "uint256"
        }
      ],
      "stateMutability": "view",
      "type": "function"
    },
    {
      "inputs": [],
      "name": "mintLimit",
      "outputs": [
        {
          "internalType": "uint256",
          "name": "",
          "type": "uint256"
        }
      ],
      "stateMutability": "view",
      "type": "function"
    },
    {
      "inputs": [
        {
          "internalType": "address",
          "name": "",
          "type": "address"
        }
      ],
      "name": "mintedInPeriod",
      "outputs": [
        {
          "internalType": "uint256",
          "name": "",
          "type": "uint256"
        }
      ],
      "stateMutability": "view",
      "type": "function"
    },
    {
      "inputs": [],
      "name": "name",
      "outputs": [
        {
          "internalType": "string",
          "name": "",
          "type": "string"
        }
      ],
      "stateMutability": "view",
      "type": "function"
    },
    {
      "inputs": [],
      "name": "owner",
      "outputs": [
        {
          "internalType": "address",
          "name": "",
          "type": "address"
        }
      ],
      "stateMutability": "view",
      "type": "function"
    },
    {
      "inputs": [],
      "name": "renounceOwnership",
      "outputs": [],
      "stateMutability": "nonpayable",
      "type": "function"
    },
    {
      "inputs": [],
      "name": "rpcBreadMinterAddress",
      "outputs": [
        {
          "internalType": "address",
          "name": "",
          "type": "address"
        }
      ],
      "stateMutability": "view",
      "type": "function"
    },
    {
      "inputs": [
        {
          "internalType": "uint256",
          "name": "newCooldown",
          "type": "uint256"
        }
      ],
      "name": "setMintCooldown",
      "outputs": [],
      "stateMutability": "nonpayable",
      "type": "function"
    },
    {
      "inputs": [
        {
          "internalType": "uint256",
          "name": "newLimit",
          "type": "uint256"
        }
      ],
      "name": "setMintLimit",
      "outputs": [],
      "stateMutability": "nonpayable",
      "type": "function"
    },
    {
      "inputs": [
        {
          "internalType": "address",
          "name": "newAddress",
          "type": "address"
        }
      ],
      "name": "setRpcBreadMinterAddress",
      "outputs": [],
      "stateMutability": "nonpayable",
      "type": "function"
    },
    {
      "inputs": [],
      "name": "symbol",
      "outputs": [
        {
          "internalType": "string",
          "name": "",
          "type": "string"
        }
      ],
      "stateMutability": "view",
      "type": "function"
    },
    {
      "inputs": [],
      "name": "totalSupply",
      "outputs": [
        {
          "internalType": "uint256",
          "name": "",
          "type": "uint256"
        }
      ],
      "stateMutability": "view",
      "type": "function"
    },
    {
      "inputs": [
        {
          "internalType": "address",
          "name": "to",
          "type": "address"
        },
        {
          "internalType": "uint256",
          "name": "value",
          "type": "uint256"
        }
      ],
      "name": "transfer",
      "outputs": [
        {
          "internalType": "bool",
          "name": "",
          "type": "bool"
        }
      ],
      "stateMutability": "nonpayable",
      "type": "function"
    },
    {
      "inputs": [
        {
          "internalType": "address",
          "name": "from",
          "type": "address"
        },
        {
          "internalType": "address",
          "name": "to",
          "type": "address"
        },
        {
          "internalType": "uint256",
          "name": "value",
          "type": "uint256"
        }
      ],
      "name": "transferFrom",
      "outputs": [
        {
          "internalType": "bool",
          "name": "",
          "type": "bool"
        }
      ],
      "stateMutability": "nonpayable",
      "type": "function"
    },
    {
      "inputs": [
        {
          "internalType": "address",
          "name": "newOwner",
          "type": "address"
        }
      ],
      "name": "transferOwnership",
      "outputs": [],
      "stateMutability": "nonpayable",
      "type": "function"
    }
  ],
  "transactionHash": "0x668692960b3471a738a62a89597291f924fa00eb8ece1574b4a24addcacfc177",
  "args": [
    "0xaC9A4652dF3878d24f35A6a6c022544aeE9748Ff"
  ],
  "numDeployments": 4,
  "solcInputHash": "5a11a5782c5c39eb4c7d97c0ec435873",
  "bytecode": "0x608060405268056bc75e2d631000006007556102586008553480156200002457600080fd5b5060405162001bda38038062001bda8339810160408190526200004791620002dc565b3360405180604001604052806005815260200164109c99585960da1b8152506040518060400160405280600381526020016210949160ea1b8152508160039081620000939190620003b3565b506004620000a28282620003b3565b5050506001600160a01b038116620000d557604051631e4fbdf760e01b8152600060048201526024015b60405180910390fd5b620000e08162000119565b50600680546001600160a01b0319166001600160a01b038316179055620001123369152d02c7e14af68000006200016b565b50620004a7565b600580546001600160a01b038381166001600160a01b0319831681179093556040519116919082907f8be0079c531659141344cd1fd0a4f28419497f9722a3daafe3b4186f6b6457e090600090a35050565b6001600160a01b038216620001975760405163ec442f0560e01b815260006004820152602401620000cc565b620001a560008383620001a9565b5050565b6001600160a01b038316620001d8578060026000828254620001cc91906200047f565b909155506200024c9050565b6001600160a01b038316600090815260208190526040902054818110156200022d5760405163391434e360e21b81526001600160a01b03851660048201526024810182905260448101839052606401620000cc565b6001600160a01b03841660009081526020819052604090209082900390555b6001600160a01b0382166200026a5760028054829003905562000289565b6001600160a01b03821660009081526020819052604090208054820190555b816001600160a01b0316836001600160a01b03167fddf252ad1be2c89b69c2b068fc378daa952ba7f163c4a11628f55a4df523b3ef83604051620002cf91815260200190565b60405180910390a3505050565b600060208284031215620002ef57600080fd5b81516001600160a01b03811681146200030757600080fd5b9392505050565b634e487b7160e01b600052604160045260246000fd5b600181811c908216806200033957607f821691505b6020821081036200035a57634e487b7160e01b600052602260045260246000fd5b50919050565b601f821115620003ae57600081815260208120601f850160051c81016020861015620003895750805b601f850160051c820191505b81811015620003aa5782815560010162000395565b5050505b505050565b81516001600160401b03811115620003cf57620003cf6200030e565b620003e781620003e0845462000324565b8462000360565b602080601f8311600181146200041f5760008415620004065750858301515b600019600386901b1c1916600185901b178555620003aa565b600085815260208120601f198616915b8281101562000450578886015182559484019460019091019084016200042f565b50858210156200046f5787850151600019600388901b60f8161c191681555b5050505050600190811b01905550565b80820180821115620004a157634e487b7160e01b600052601160045260246000fd5b92915050565b61172380620004b76000396000f3fe608060405234801561001057600080fd5b50600436106101a95760003560e01c806370a08231116100f9578063a2c9225711610097578063dd62ed3e11610071578063dd62ed3e14610393578063e6f3e004146103cc578063f2fde38b146103df578063fc71a1cc146103f257600080fd5b8063a2c922571461035a578063a84bea971461036d578063a9059cbb1461038057600080fd5b80638f1550f5116100d35780638f1550f51461031657806395d89b4114610336578063996517cf1461033e5780639e6a1d7d1461034757600080fd5b806370a08231146102c0578063715018a6146102e95780638da5cb5b146102f157600080fd5b8063344a681e116101665780634a6cc677116101405780634a6cc677146102675780634b957eb41461027a578063685731071461028d5780636aa71d18146102a057600080fd5b8063344a681e1461022c57806337fcee281461024157806340c10f191461025457600080fd5b806306fdde03146101ae578063095ea7b3146101cc57806318160ddd146101ef5780632000d4301461020157806323b872dd1461020a578063313ce5671461021d575b600080fd5b6101b6610405565b6040516101c391906113bc565b60405180910390f35b6101df6101da366004611426565b610497565b60405190151581526020016101c3565b6002545b6040519081526020016101c3565b6101f360085481565b6101df610218366004611450565b6104b1565b604051601281526020016101c3565b61023f61023a36600461148c565b6104d5565b005b6101f361024f3660046114a5565b61056e565b61023f610262366004611426565b610623565b61023f61027536600461150c565b6106a8565b6101f36102883660046114a5565b610958565b61023f61029b36600461150c565b6109ae565b6101f36102ae3660046114a5565b60096020526000908152604090205481565b6101f36102ce3660046114a5565b6001600160a01b031660009081526020819052604090205490565b61023f610c9f565b6005546001600160a01b03165b6040516001600160a01b0390911681526020016101c3565b6101f36103243660046114a5565b600a6020526000908152604090205481565b6101b6610cb3565b6101f360075481565b61023f61035536600461148c565b610cc2565b61023f6103683660046114a5565b610d59565b6006546102fe906001600160a01b031681565b6101df61038e366004611426565b610d83565b6101f36103a1366004611578565b6001600160a01b03918216600090815260016020908152604080832093909416825291909152205490565b6101f36103da3660046114a5565b610d91565b61023f6103ed3660046114a5565b610de3565b6101f36104003660046114a5565b610e21565b606060038054610414906115ab565b80601f0160208091040260200160405190810160405280929190818152602001828054610440906115ab565b801561048d5780601f106104625761010080835404028352916020019161048d565b820191906000526020600020905b81548152906001019060200180831161047057829003601f168201915b5050505050905090565b6000336104a5818585610e88565b60019150505b92915050565b6000336104bf858285610e9a565b6104ca858585610f18565b506001949350505050565b6104dd610f77565b600081116105325760405162461bcd60e51b815260206004820152601f60248201527f436f6f6c646f776e206d7573742062652067726561746572207468616e20300060448201526064015b60405180910390fd5b60088190556040518181527f583d8b24c5439ab7d810e51e37e8db41ba66f1168fd7b752ceae0c7681c5272c906020015b60405180910390a150565b6001600160a01b0381166000908152600960205260408120544290829061059590836115fb565b9050600060085482106105aa575060006105bb565b816008546105b891906115fb565b90505b6001600160a01b03851660008181526009602090815260409182902054825187815291820152908101849052606081018390527f6ff563e240440df6164f82c5c410338bdb38fa63569b3389ba4103beb9474b3e9060800160405180910390a2949350505050565b6006546001600160a01b0316331461064d5760405162461bcd60e51b81526004016105299061160e565b6106578282610fa4565b61066182826110fb565b816001600160a01b03167f0f6798a560793a54c3bcfe86a93cde1e73087d944c0ea20544137d41213968858260405161069c91815260200190565b60405180910390a25050565b6006546001600160a01b031633146106d25760405162461bcd60e51b81526004016105299061160e565b8281146106f15760405162461bcd60e51b81526004016105299061165a565b826107375760405162461bcd60e51b81526020600482015260166024820152754172726179732063616e6e6f7420626520656d70747960501b6044820152606401610529565b60648311156107845760405162461bcd60e51b815260206004820152601960248201527804d6178696d756d2062617463682073697a652069732031303603c1b6044820152606401610529565b60005b838110156109515760008585838181106107a3576107a36116ab565b90506020020160208101906107b891906114a5565b6001600160a01b03160361080e5760405162461bcd60e51b815260206004820152601d60248201527f43616e6e6f74206275726e2066726f6d207a65726f20616464726573730000006044820152606401610529565b6000838383818110610822576108226116ab565b90506020020135116108765760405162461bcd60e51b815260206004820152601d60248201527f416d6f756e74206d7573742062652067726561746572207468616e20300000006044820152606401610529565b6108be85858381811061088b5761088b6116ab565b90506020020160208101906108a091906114a5565b8484848181106108b2576108b26116ab565b90506020020135611135565b8484828181106108d0576108d06116ab565b90506020020160208101906108e591906114a5565b6001600160a01b03167f4847840e886fff2fb51795fc333e74b8f187068bbd114005b146684e5d910259848484818110610921576109216116ab565b9050602002013560405161093791815260200190565b60405180910390a280610949816116c1565b915050610787565b5050505050565b6008546001600160a01b0382166000908152600960205260408120549091429161098291906116da565b81106109915750600092915050565b50506001600160a01b03166000908152600a602052604090205490565b6006546001600160a01b031633146109d85760405162461bcd60e51b81526004016105299061160e565b8281146109f75760405162461bcd60e51b81526004016105299061165a565b82610a3d5760405162461bcd60e51b81526020600482015260166024820152754172726179732063616e6e6f7420626520656d70747960501b6044820152606401610529565b6064831115610a8a5760405162461bcd60e51b815260206004820152601960248201527804d6178696d756d2062617463682073697a652069732031303603c1b6044820152606401610529565b60005b83811015610951576000858583818110610aa957610aa96116ab565b9050602002016020810190610abe91906114a5565b6001600160a01b031603610b145760405162461bcd60e51b815260206004820152601b60248201527f43616e6e6f74206d696e7420746f207a65726f206164647265737300000000006044820152606401610529565b6000838383818110610b2857610b286116ab565b9050602002013511610b7c5760405162461bcd60e51b815260206004820152601d60248201527f416d6f756e74206d7573742062652067726561746572207468616e20300000006044820152606401610529565b610bc4858583818110610b9157610b916116ab565b9050602002016020810190610ba691906114a5565b848484818110610bb857610bb86116ab565b90506020020135610fa4565b610c0c858583818110610bd957610bd96116ab565b9050602002016020810190610bee91906114a5565b848484818110610c0057610c006116ab565b905060200201356110fb565b848482818110610c1e57610c1e6116ab565b9050602002016020810190610c3391906114a5565b6001600160a01b03167f0f6798a560793a54c3bcfe86a93cde1e73087d944c0ea20544137d4121396885848484818110610c6f57610c6f6116ab565b90506020020135604051610c8591815260200190565b60405180910390a280610c97816116c1565b915050610a8d565b610ca7610f77565b610cb1600061116b565b565b606060048054610414906115ab565b610cca610f77565b60008111610d245760405162461bcd60e51b815260206004820152602160248201527f4d696e74206c696d6974206d7573742062652067726561746572207468616e206044820152600360fc1b6064820152608401610529565b60078190556040518181527fc39a10b7490bc694c922bd6cbef1462b0cbf533e0e4bce081f71702069d12d1c90602001610563565b610d61610f77565b600680546001600160a01b0319166001600160a01b0392909216919091179055565b6000336104a5818585610f18565b6001600160a01b03811660009081526009602052604081205442908290610db890836115fb565b90506008548110610dcd575060009392505050565b80600854610ddb91906115fb565b949350505050565b610deb610f77565b6001600160a01b038116610e1557604051631e4fbdf760e01b815260006004820152602401610529565b610e1e8161116b565b50565b6008546001600160a01b03821660009081526009602052604081205490914291610e4b91906116da565b8110610e5b575050600754919050565b6001600160a01b0383166000908152600a6020526040902054600754610e8191906115fb565b9392505050565b610e9583838360016111bd565b505050565b6001600160a01b038381166000908152600160209081526040808320938616835292905220546000198114610f125781811015610f0357604051637dc7a0d960e11b81526001600160a01b03841660048201526024810182905260448101839052606401610529565b610f12848484840360006111bd565b50505050565b6001600160a01b038316610f4257604051634b637e8f60e11b815260006004820152602401610529565b6001600160a01b038216610f6c5760405163ec442f0560e01b815260006004820152602401610529565b610e95838383611292565b6005546001600160a01b03163314610cb15760405163118cdaa760e01b8152336004820152602401610529565b6008546001600160a01b0383166000908152600960205260409020544291610fcb916116da565b8110610feb576001600160a01b0383166000908152600a60205260408120555b6007546001600160a01b0384166000908152600a60205260409020546110129084906116da565b11156110605760405162461bcd60e51b815260206004820152601960248201527f4d696e7420616d6f756e742065786365656473206c696d6974000000000000006044820152606401610529565b6001600160a01b0383166000908152600960209081526040808320849055600a909152812080548492906110959084906116da565b90915550506001600160a01b038316600081815260096020908152604091829020546008548351868152928301919091528183015290517f89b7d5d8c1b14d45145162afe288a9af9c8d4c4d0305bb6c4f76f94e3e2c47af9181900360600190a2505050565b6001600160a01b0382166111255760405163ec442f0560e01b815260006004820152602401610529565b61113160008383611292565b5050565b6001600160a01b03821661115f57604051634b637e8f60e11b815260006004820152602401610529565b61113182600083611292565b600580546001600160a01b038381166001600160a01b0319831681179093556040519116919082907f8be0079c531659141344cd1fd0a4f28419497f9722a3daafe3b4186f6b6457e090600090a35050565b6001600160a01b0384166111e75760405163e602df0560e01b815260006004820152602401610529565b6001600160a01b03831661121157604051634a1406b160e11b815260006004820152602401610529565b6001600160a01b0380851660009081526001602090815260408083209387168352929052208290558015610f1257826001600160a01b0316846001600160a01b03167f8c5be1e5ebec7d5bd14f71427d1e84f3dd0314c0f7b2291e5b200ac8c7c3b9258460405161128491815260200190565b60405180910390a350505050565b6001600160a01b0383166112bd5780600260008282546112b291906116da565b9091555061132f9050565b6001600160a01b038316600090815260208190526040902054818110156113105760405163391434e360e21b81526001600160a01b03851660048201526024810182905260448101839052606401610529565b6001600160a01b03841660009081526020819052604090209082900390555b6001600160a01b03821661134b5760028054829003905561136a565b6001600160a01b03821660009081526020819052604090208054820190555b816001600160a01b0316836001600160a01b03167fddf252ad1be2c89b69c2b068fc378daa952ba7f163c4a11628f55a4df523b3ef836040516113af91815260200190565b60405180910390a3505050565b600060208083528351808285015260005b818110156113e9578581018301518582016040015282016113cd565b506000604082860101526040601f19601f8301168501019250505092915050565b80356001600160a01b038116811461142157600080fd5b919050565b6000806040838503121561143957600080fd5b6114428361140a565b946020939093013593505050565b60008060006060848603121561146557600080fd5b61146e8461140a565b925061147c6020850161140a565b9150604084013590509250925092565b60006020828403121561149e57600080fd5b5035919050565b6000602082840312156114b757600080fd5b610e818261140a565b60008083601f8401126114d257600080fd5b50813567ffffffffffffffff8111156114ea57600080fd5b6020830191508360208260051b850101111561150557600080fd5b9250929050565b6000806000806040858703121561152257600080fd5b843567ffffffffffffffff8082111561153a57600080fd5b611546888389016114c0565b9096509450602087013591508082111561155f57600080fd5b5061156c878288016114c0565b95989497509550505050565b6000806040838503121561158b57600080fd5b6115948361140a565b91506115a26020840161140a565b90509250929050565b600181811c908216806115bf57607f821691505b6020821081036115df57634e487b7160e01b600052602260045260246000fd5b50919050565b634e487b7160e01b600052601160045260246000fd5b818103818111156104ab576104ab6115e5565b6020808252602c908201527f4f6e6c7920525043204272656164204d696e7465722063616e2063616c6c207460408201526b3434b990333ab731ba34b7b760a11b606082015260800190565b60208082526031908201527f4164647265737320616e6420616d6f756e7420617272617973206d75737420626040820152700ca40e8d0ca40e6c2daca40d8cadccee8d607b1b606082015260800190565b634e487b7160e01b600052603260045260246000fd5b6000600182016116d3576116d36115e5565b5060010190565b808201808211156104ab576104ab6115e556fea2646970667358221220315b56c8d499d3433afab1f69b2867c30f669edaeb57cf8e633a6f612bcc3d3a64736f6c63430008140033",
  "devdoc": {
    "errors": {
      "ERC20InsufficientAllowance(address,uint256,uint256)": [
        {
          "details": "Indicates a failure with the `spender`s `allowance`. Used in transfers.",
          "params": {
            "allowance": "Amount of tokens a `spender` is allowed to operate with.",
            "needed": "Minimum amount required to perform a transfer.",
            "spender": "Address that may be allowed to operate on tokens without being their owner."
          }
        }
      ],
      "ERC20InsufficientBalance(address,uint256,uint256)": [
        {
          "details": "Indicates an error related to the current `balance` of a `sender`. Used in transfers.",
          "params": {
            "balance": "Current balance for the interacting account.",
            "needed": "Minimum amount required to perform a transfer.",
            "sender": "Address whose tokens are being transferred."
          }
        }
      ],
      "ERC20InvalidApprover(address)": [
        {
          "details": "Indicates a failure with the `approver` of a token to be approved. Used in approvals.",
          "params": {
            "approver": "Address initiating an approval operation."
          }
        }
      ],
      "ERC20InvalidReceiver(address)": [
        {
          "details": "Indicates a failure with the token `receiver`. Used in transfers.",
          "params": {
            "receiver": "Address to which tokens are being transferred."
          }
        }
      ],
      "ERC20InvalidSender(address)": [
        {
          "details": "Indicates a failure with the token `sender`. Used in transfers.",
          "params": {
            "sender": "Address whose tokens are being transferred."
          }
        }
      ],
      "ERC20InvalidSpender(address)": [
        {
          "details": "Indicates a failure with the `spender` to be approved. Used in approvals.",
          "params": {
            "spender": "Address that may be allowed to operate on tokens without being their owner."
          }
        }
      ],
      "OwnableInvalidOwner(address)": [
        {
          "details": "The owner is not a valid owner account. (eg. `address(0)`)"
        }
      ],
      "OwnableUnauthorizedAccount(address)": [
        {
          "details": "The caller account is not authorized to perform an operation."
        }
      ]
    },
    "events": {
      "Approval(address,address,uint256)": {
        "details": "Emitted when the allowance of a `spender` for an `owner` is set by a call to {approve}. `value` is the new allowance."
      },
      "Transfer(address,address,uint256)": {
        "details": "Emitted when `value` tokens are moved from one account (`from`) to another (`to`). Note that `value` may be zero."
      }
    },
    "kind": "dev",
    "methods": {
      "allowance(address,address)": {
        "details": "See {IERC20-allowance}."
      },
      "approve(address,uint256)": {
        "details": "See {IERC20-approve}. NOTE: If `value` is the maximum `uint256`, the allowance is not updated on `transferFrom`. This is semantically equivalent to an infinite approval. Requirements: - `spender` cannot be the zero address."
      },
      "balanceOf(address)": {
        "details": "See {IERC20-balanceOf}."
      },
      "decimals()": {
        "details": "Returns the number of decimals used to get its user representation. For example, if `decimals` equals `2`, a balance of `505` tokens should be displayed to a user as `5.05` (`505 / 10 ** 2`). Tokens usually opt for a value of 18, imitating the relationship between Ether and Wei. This is the default value returned by this function, unless it's overridden. NOTE: This information is only used for _display_ purposes: it in no way affects any of the arithmetic of the contract, including {IERC20-balanceOf} and {IERC20-transfer}."
      },
      "name()": {
        "details": "Returns the name of the token."
      },
      "owner()": {
        "details": "Returns the address of the current owner."
      },
      "renounceOwnership()": {
        "details": "Leaves the contract without owner. It will not be possible to call `onlyOwner` functions. Can only be called by the current owner. NOTE: Renouncing ownership will leave the contract without an owner, thereby disabling any functionality that is only available to the owner."
      },
      "symbol()": {
        "details": "Returns the symbol of the token, usually a shorter version of the name."
      },
      "totalSupply()": {
        "details": "See {IERC20-totalSupply}."
      },
      "transfer(address,uint256)": {
        "details": "See {IERC20-transfer}. Requirements: - `to` cannot be the zero address. - the caller must have a balance of at least `value`."
      },
      "transferFrom(address,address,uint256)": {
        "details": "See {IERC20-transferFrom}. Emits an {Approval} event indicating the updated allowance. This is not required by the EIP. See the note at the beginning of {ERC20}. NOTE: Does not update the allowance if the current allowance is the maximum `uint256`. Requirements: - `from` and `to` cannot be the zero address. - `from` must have a balance of at least `value`. - the caller must have allowance for ``from``'s tokens of at least `value`."
      },
      "transferOwnership(address)": {
        "details": "Transfers ownership of the contract to a new account (`newOwner`). Can only be called by the current owner."
      }
    },
    "version": 1
  },
  "userdoc": {
    "kind": "user",
    "methods": {},
    "version": 1
  },
  "storageLayout": {
    "storage": [
      {
        "astId": 307,
        "contract": "contracts/Bread.sol:Bread",
        "label": "_balances",
        "offset": 0,
        "slot": "0",
        "type": "t_mapping(t_address,t_uint256)"
      },
      {
        "astId": 313,
        "contract": "contracts/Bread.sol:Bread",
        "label": "_allowances",
        "offset": 0,
        "slot": "1",
        "type": "t_mapping(t_address,t_mapping(t_address,t_uint256))"
      },
      {
        "astId": 315,
        "contract": "contracts/Bread.sol:Bread",
        "label": "_totalSupply",
        "offset": 0,
        "slot": "2",
        "type": "t_uint256"
      },
      {
        "astId": 317,
        "contract": "contracts/Bread.sol:Bread",
        "label": "_name",
        "offset": 0,
        "slot": "3",
        "type": "t_string_storage"
      },
      {
        "astId": 319,
        "contract": "contracts/Bread.sol:Bread",
        "label": "_symbol",
        "offset": 0,
        "slot": "4",
        "type": "t_string_storage"
      },
      {
        "astId": 8,
        "contract": "contracts/Bread.sol:Bread",
        "label": "_owner",
        "offset": 0,
        "slot": "5",
        "type": "t_address"
      },
      {
        "astId": 985,
        "contract": "contracts/Bread.sol:Bread",
        "label": "rpcBreadMinterAddress",
        "offset": 0,
        "slot": "6",
        "type": "t_address"
      },
      {
        "astId": 992,
        "contract": "contracts/Bread.sol:Bread",
        "label": "mintLimit",
        "offset": 0,
        "slot": "7",
        "type": "t_uint256"
      },
      {
        "astId": 995,
        "contract": "contracts/Bread.sol:Bread",
        "label": "mintCooldown",
        "offset": 0,
        "slot": "8",
        "type": "t_uint256"
      },
      {
        "astId": 999,
        "contract": "contracts/Bread.sol:Bread",
        "label": "lastMintTime",
        "offset": 0,
        "slot": "9",
        "type": "t_mapping(t_address,t_uint256)"
      },
      {
        "astId": 1003,
        "contract": "contracts/Bread.sol:Bread",
        "label": "mintedInPeriod",
        "offset": 0,
        "slot": "10",
        "type": "t_mapping(t_address,t_uint256)"
      }
    ],
    "types": {
      "t_address": {
        "encoding": "inplace",
        "label": "address",
        "numberOfBytes": "20"
      },
      "t_mapping(t_address,t_mapping(t_address,t_uint256))": {
        "encoding": "mapping",
        "key": "t_address",
        "label": "mapping(address => mapping(address => uint256))",
        "numberOfBytes": "32",
        "value": "t_mapping(t_address,t_uint256)"
      },
      "t_mapping(t_address,t_uint256)": {
        "encoding": "mapping",
        "key": "t_address",
        "label": "mapping(address => uint256)",
        "numberOfBytes": "32",
        "value": "t_uint256"
      },
      "t_string_storage": {
        "encoding": "bytes",
        "label": "string",
        "numberOfBytes": "32"
      },
      "t_uint256": {
        "encoding": "inplace",
        "label": "uint256",
        "numberOfBytes": "32"
      }
    }
  }
}