{
  "address": "0x75dEa546535A2ACA736D4917631b88079D84D302",
  "abi": [
    {
      "inputs": [
        {
          "internalType": "address",
          "name": "rpcBreadMinterAddress_",
          "type": "address"
        }
      ],
      "stateMutability": "nonpayable",
      "type": "constructor"
    },
    {
      "inputs": [
        {
          "internalType": "address",
          "name": "spender",
          "type": "address"
        },
        {
          "internalType": "uint256",
          "name": "allowance",
          "type": "uint256"
        },
        {
          "internalType": "uint256",
          "name": "needed",
          "type": "uint256"
        }
      ],
      "name": "ERC20InsufficientAllowance",
      "type": "error"
    },
    {
      "inputs": [
        {
          "internalType": "address",
          "name": "sender",
          "type": "address"
        },
        {
          "internalType": "uint256",
          "name": "balance",
          "type": "uint256"
        },
        {
          "internalType": "uint256",
          "name": "needed",
          "type": "uint256"
        }
      ],
      "name": "ERC20InsufficientBalance",
      "type": "error"
    },
    {
      "inputs": [
        {
          "internalType": "address",
          "name": "approver",
          "type": "address"
        }
      ],
      "name": "ERC20InvalidApprover",
      "type": "error"
    },
    {
      "inputs": [
        {
          "internalType": "address",
          "name": "receiver",
          "type": "address"
        }
      ],
      "name": "ERC20InvalidReceiver",
      "type": "error"
    },
    {
      "inputs": [
        {
          "internalType": "address",
          "name": "sender",
          "type": "address"
        }
      ],
      "name": "ERC20InvalidSender",
      "type": "error"
    },
    {
      "inputs": [
        {
          "internalType": "address",
          "name": "spender",
          "type": "address"
        }
      ],
      "name": "ERC20InvalidSpender",
      "type": "error"
    },
    {
      "inputs": [
        {
          "internalType": "address",
          "name": "owner",
          "type": "address"
        }
      ],
      "name": "OwnableInvalidOwner",
      "type": "error"
    },
    {
      "inputs": [
        {
          "internalType": "address",
          "name": "account",
          "type": "address"
        }
      ],
      "name": "OwnableUnauthorizedAccount",
      "type": "error"
    },
    {
      "anonymous": false,
      "inputs": [
        {
          "indexed": true,
          "internalType": "address",
          "name": "owner",
          "type": "address"
        },
        {
          "indexed": true,
          "internalType": "address",
          "name": "spender",
          "type": "address"
        },
        {
          "indexed": false,
          "internalType": "uint256",
          "name": "value",
          "type": "uint256"
        }
      ],
      "name": "Approval",
      "type": "event"
    },
    {
      "anonymous": false,
      "inputs": [
        {
          "indexed": false,
          "internalType": "uint256",
          "name": "newCooldown",
          "type": "uint256"
        }
      ],
      "name": "CooldownUpdated",
      "type": "event"
    },
    {
      "anonymous": false,
      "inputs": [
        {
          "indexed": true,
          "internalType": "address",
          "name": "user",
          "type": "address"
        },
        {
          "indexed": false,
          "internalType": "uint256",
          "name": "currentTime",
          "type": "uint256"
        },
        {
          "indexed": false,
          "internalType": "uint256",
          "name": "lastMintTime",
          "type": "uint256"
        },
        {
          "indexed": false,
          "internalType": "uint256",
          "name": "timeSinceLastMint",
          "type": "uint256"
        },
        {
          "indexed": false,
          "internalType": "uint256",
          "name": "remainingCooldown",
          "type": "uint256"
        }
      ],
      "name": "DebugCooldown",
      "type": "event"
    },
    {
      "anonymous": false,
      "inputs": [
        {
          "indexed": true,
          "internalType": "address",
          "name": "user",
          "type": "address"
        },
        {
          "indexed": false,
          "internalType": "uint256",
          "name": "currentTime",
          "type": "uint256"
        },
        {
          "indexed": false,
          "internalType": "uint256",
          "name": "lastMintTime",
          "type": "uint256"
        },
        {
          "indexed": false,
          "internalType": "uint256",
          "name": "cooldown",
          "type": "uint256"
        }
      ],
      "name": "DebugTime",
      "type": "event"
    },
    {
      "anonymous": false,
      "inputs": [
        {
          "indexed": true,
          "internalType": "address",
          "name": "user",
          "type": "address"
        },
        {
          "indexed": false,
          "internalType": "uint256",
          "name": "amount",
          "type": "uint256"
        }
      ],
      "name": "Mint",
      "type": "event"
    },
    {
      "anonymous": false,
      "inputs": [
        {
          "indexed": false,
          "internalType": "uint256",
          "name": "newLimit",
          "type": "uint256"
        }
      ],
      "name": "MintLimitUpdated",
      "type": "event"
    },
    {
      "anonymous": false,
      "inputs": [
        {
          "indexed": true,
          "internalType": "address",
          "name": "previousOwner",
          "type": "address"
        },
        {
          "indexed": true,
          "internalType": "address",
          "name": "newOwner",
          "type": "address"
        }
      ],
      "name": "OwnershipTransferred",
      "type": "event"
    },
    {
      "anonymous": false,
      "inputs": [
        {
          "indexed": true,
          "internalType": "address",
          "name": "target",
          "type": "address"
        },
        {
          "indexed": false,
          "internalType": "uint256",
          "name": "amount",
          "type": "uint256"
        }
      ],
      "name": "PenaltyBurn",
      "type": "event"
    },
    {
      "anonymous": false,
      "inputs": [
        {
          "indexed": true,
          "internalType": "address",
          "name": "from",
          "type": "address"
        },
        {
          "indexed": true,
          "internalType": "address",
          "name": "to",
          "type": "address"
        },
        {
          "indexed": false,
          "internalType": "uint256",
          "name": "value",
          "type": "uint256"
        }
      ],
      "name": "Transfer",
      "type": "event"
    },
    {
      "inputs": [
        {
          "internalType": "address",
          "name": "owner",
          "type": "address"
        },
        {
          "internalType": "address",
          "name": "spender",
          "type": "address"
        }
      ],
      "name": "allowance",
      "outputs": [
        {
          "internalType": "uint256",
          "name": "",
          "type": "uint256"
        }
      ],
      "stateMutability": "view",
      "type": "function"
    },
    {
      "inputs": [
        {
          "internalType": "address",
          "name": "spender",
          "type": "address"
        },
        {
          "internalType": "uint256",
          "name": "value",
          "type": "uint256"
        }
      ],
      "name": "approve",
      "outputs": [
        {
          "internalType": "bool",
          "name": "",
          "type": "bool"
        }
      ],
      "stateMutability": "nonpayable",
      "type": "function"
    },
    {
      "inputs": [
        {
          "internalType": "address",
          "name": "account",
          "type": "address"
        }
      ],
      "name": "balanceOf",
      "outputs": [
        {
          "internalType": "uint256",
          "name": "",
          "type": "uint256"
        }
      ],
      "stateMutability": "view",
      "type": "function"
    },
    {
      "inputs": [
        {
          "internalType": "address[]",
          "name": "addresses",
          "type": "address[]"
        },
        {
          "internalType": "uint256[]",
          "name": "amounts",
          "type": "uint256[]"
        }
      ],
      "name": "batchBurn",
      "outputs": [],
      "stateMutability": "nonpayable",
      "type": "function"
    },
    {
      "inputs": [
        {
          "internalType": "address[]",
          "name": "addresses",
          "type": "address[]"
        },
        {
          "internalType": "uint256[]",
          "name": "amounts",
          "type": "uint256[]"
        }
      ],
      "name": "batchMint",
      "outputs": [],
      "stateMutability": "nonpayable",
      "type": "function"
    },
    {
      "inputs": [
        {
          "internalType": "address",
          "name": "user",
          "type": "address"
        }
      ],
      "name": "debugCooldown",
      "outputs": [
        {
          "internalType": "uint256",
          "name": "",
          "type": "uint256"
        }
      ],
      "stateMutability": "nonpayable",
      "type": "function"
    },
    {
      "inputs": [],
      "name": "decimals",
      "outputs": [
        {
          "internalType": "uint8",
          "name": "",
          "type": "uint8"
        }
      ],
      "stateMutability": "view",
      "type": "function"
    },
    {
      "inputs": [
        {
          "internalType": "address",
          "name": "user",
          "type": "address"
        }
      ],
      "name": "getMintedInPeriod",
      "outputs": [
        {
          "internalType": "uint256",
          "name": "",
          "type": "uint256"
        }
      ],
      "stateMutability": "view",
      "type": "function"
    },
    {
      "inputs": [
        {
          "internalType": "address",
          "name": "user",
          "type": "address"
        }
      ],
      "name": "getRemainingCooldown",
      "outputs": [
        {
          "internalType": "uint256",
          "name": "",
          "type": "uint256"
        }
      ],
      "stateMutability": "view",
      "type": "function"
    },
    {
      "inputs": [
        {
          "internalType": "address",
          "name": "user",
          "type": "address"
        }
      ],
      "name": "getRemainingMintAmount",
      "outputs": [
        {
          "internalType": "uint256",
          "name": "",
          "type": "uint256"
        }
      ],
      "stateMutability": "view",
      "type": "function"
    },
    {
      "inputs": [
        {
          "internalType": "address",
          "name": "",
          "type": "address"
        }
      ],
      "name": "lastMintTime",
      "outputs": [
        {
          "internalType": "uint256",
          "name": "",
          "type": "uint256"
        }
      ],
      "stateMutability": "view",
      "type": "function"
    },
    {
      "inputs": [],
      "name": "mintCooldown",
      "outputs": [
        {
          "internalType": "uint256",
          "name": "",
          "type": "uint256"
        }
      ],
      "stateMutability": "view",
      "type": "function"
    },
    {
      "inputs": [],
      "name": "mintLimit",
      "outputs": [
        {
          "internalType": "uint256",
          "name": "",
          "type": "uint256"
        }
      ],
      "stateMutability": "view",
      "type": "function"
    },
    {
      "inputs": [
        {
          "internalType": "address",
          "name": "",
          "type": "address"
        }
      ],
      "name": "mintedInPeriod",
      "outputs": [
        {
          "internalType": "uint256",
          "name": "",
          "type": "uint256"
        }
      ],
      "stateMutability": "view",
      "type": "function"
    },
    {
      "inputs": [],
      "name": "name",
      "outputs": [
        {
          "internalType": "string",
          "name": "",
          "type": "string"
        }
      ],
      "stateMutability": "view",
      "type": "function"
    },
    {
      "inputs": [],
      "name": "owner",
      "outputs": [
        {
          "internalType": "address",
          "name": "",
          "type": "address"
        }
      ],
      "stateMutability": "view",
      "type": "function"
    },
    {
      "inputs": [],
      "name": "renounceOwnership",
      "outputs": [],
      "stateMutability": "nonpayable",
      "type": "function"
    },
    {
      "inputs": [],
      "name": "rpcBreadMinterAddress",
      "outputs": [
        {
          "internalType": "address",
          "name": "",
          "type": "address"
        }
      ],
      "stateMutability": "view",
      "type": "function"
    },
    {
      "inputs": [
        {
          "internalType": "uint256",
          "name": "newCooldown",
          "type": "uint256"
        }
      ],
      "name": "setMintCooldown",
      "outputs": [],
      "stateMutability": "nonpayable",
      "type": "function"
    },
    {
      "inputs": [
        {
          "internalType": "uint256",
          "name": "newLimit",
          "type": "uint256"
        }
      ],
      "name": "setMintLimit",
      "outputs": [],
      "stateMutability": "nonpayable",
      "type": "function"
    },
    {
      "inputs": [
        {
          "internalType": "address",
          "name": "newAddress",
          "type": "address"
        }
      ],
      "name": "setRpcBreadMinterAddress",
      "outputs": [],
      "stateMutability": "nonpayable",
      "type": "function"
    },
    {
      "inputs": [],
      "name": "symbol",
      "outputs": [
        {
          "internalType": "string",
          "name": "",
          "type": "string"
        }
      ],
      "stateMutability": "view",
      "type": "function"
    },
    {
      "inputs": [],
      "name": "totalSupply",
      "outputs": [
        {
          "internalType": "uint256",
          "name": "",
          "type": "uint256"
        }
      ],
      "stateMutability": "view",
      "type": "function"
    },
    {
      "inputs": [
        {
          "internalType": "address",
          "name": "to",
          "type": "address"
        },
        {
          "internalType": "uint256",
          "name": "value",
          "type": "uint256"
        }
      ],
      "name": "transfer",
      "outputs": [
        {
          "internalType": "bool",
          "name": "",
          "type": "bool"
        }
      ],
      "stateMutability": "nonpayable",
      "type": "function"
    },
    {
      "inputs": [
        {
          "internalType": "address",
          "name": "from",
          "type": "address"
        },
        {
          "internalType": "address",
          "name": "to",
          "type": "address"
        },
        {
          "internalType": "uint256",
          "name": "value",
          "type": "uint256"
        }
      ],
      "name": "transferFrom",
      "outputs": [
        {
          "internalType": "bool",
          "name": "",
          "type": "bool"
        }
      ],
      "stateMutability": "nonpayable",
      "type": "function"
    },
    {
      "inputs": [
        {
          "internalType": "address",
          "name": "newOwner",
          "type": "address"
        }
      ],
      "name": "transferOwnership",
      "outputs": [],
      "stateMutability": "nonpayable",
      "type": "function"
    }
  ],
  "transactionHash": "0x7620b98c2d144a5addc37d79b47d5c9dc35ddcecbfc26b60c152e60046ebec4f",
  "args": [
    "0xaC9A4652dF3878d24f35A6a6c022544aeE9748Ff"
  ],
  "numDeployments": 5,
  "solcInputHash": "fc0fb6eecf0b7b107d2116fd4e8bd593",
  "bytecode": "0x608060405268056bc75e2d631000006007556102586008553480156200002457600080fd5b5060405162001b5138038062001b518339810160408190526200004791620002dc565b3360405180604001604052806005815260200164109c99585960da1b8152506040518060400160405280600381526020016210949160ea1b8152508160039081620000939190620003b3565b506004620000a28282620003b3565b5050506001600160a01b038116620000d557604051631e4fbdf760e01b8152600060048201526024015b60405180910390fd5b620000e08162000119565b50600680546001600160a01b0319166001600160a01b038316179055620001123369152d02c7e14af68000006200016b565b50620004a7565b600580546001600160a01b038381166001600160a01b0319831681179093556040519116919082907f8be0079c531659141344cd1fd0a4f28419497f9722a3daafe3b4186f6b6457e090600090a35050565b6001600160a01b038216620001975760405163ec442f0560e01b815260006004820152602401620000cc565b620001a560008383620001a9565b5050565b6001600160a01b038316620001d8578060026000828254620001cc91906200047f565b909155506200024c9050565b6001600160a01b038316600090815260208190526040902054818110156200022d5760405163391434e360e21b81526001600160a01b03851660048201526024810182905260448101839052606401620000cc565b6001600160a01b03841660009081526020819052604090209082900390555b6001600160a01b0382166200026a5760028054829003905562000289565b6001600160a01b03821660009081526020819052604090208054820190555b816001600160a01b0316836001600160a01b03167fddf252ad1be2c89b69c2b068fc378daa952ba7f163c4a11628f55a4df523b3ef83604051620002cf91815260200190565b60405180910390a3505050565b600060208284031215620002ef57600080fd5b81516001600160a01b03811681146200030757600080fd5b9392505050565b634e487b7160e01b600052604160045260246000fd5b600181811c908216806200033957607f821691505b6020821081036200035a57634e487b7160e01b600052602260045260246000fd5b50919050565b601f821115620003ae57600081815260208120601f850160051c81016020861015620003895750805b601f850160051c820191505b81811015620003aa5782815560010162000395565b5050505b505050565b81516001600160401b03811115620003cf57620003cf6200030e565b620003e781620003e0845462000324565b8462000360565b602080601f8311600181146200041f5760008415620004065750858301515b600019600386901b1c1916600185901b178555620003aa565b600085815260208120601f198616915b8281101562000450578886015182559484019460019091019084016200042f565b50858210156200046f5787850151600019600388901b60f8161c191681555b5050505050600190811b01905550565b80820180821115620004a157634e487b7160e01b600052601160045260246000fd5b92915050565b61169a80620004b76000396000f3fe608060405234801561001057600080fd5b506004361061018e5760003560e01c8063715018a6116100de578063a2c9225711610097578063dd62ed3e11610071578063dd62ed3e14610365578063e6f3e0041461039e578063f2fde38b146103b1578063fc71a1cc146103c457600080fd5b8063a2c922571461032c578063a84bea971461033f578063a9059cbb1461035257600080fd5b8063715018a6146102bb5780638da5cb5b146102c35780638f1550f5146102e857806395d89b4114610308578063996517cf146103105780639e6a1d7d1461031957600080fd5b8063344a681e1161014b5780634b957eb4116101255780634b957eb41461024c578063685731071461025f5780636aa71d181461027257806370a082311461029257600080fd5b8063344a681e1461021157806337fcee28146102265780634a6cc6771461023957600080fd5b806306fdde0314610193578063095ea7b3146101b157806318160ddd146101d45780632000d430146101e657806323b872dd146101ef578063313ce56714610202575b600080fd5b61019b6103d7565b6040516101a89190611333565b60405180910390f35b6101c46101bf36600461139d565b610469565b60405190151581526020016101a8565b6002545b6040519081526020016101a8565b6101d860085481565b6101c46101fd3660046113c7565b610483565b604051601281526020016101a8565b61022461021f366004611403565b6104a7565b005b6101d861023436600461141c565b610540565b610224610247366004611483565b6105f5565b6101d861025a36600461141c565b6108a5565b61022461026d366004611483565b6108fb565b6101d861028036600461141c565b60096020526000908152604090205481565b6101d86102a036600461141c565b6001600160a01b031660009081526020819052604090205490565b610224610bec565b6005546001600160a01b03165b6040516001600160a01b0390911681526020016101a8565b6101d86102f636600461141c565b600a6020526000908152604090205481565b61019b610c00565b6101d860075481565b610224610327366004611403565b610c0f565b61022461033a36600461141c565b610ca6565b6006546102d0906001600160a01b031681565b6101c461036036600461139d565b610cd0565b6101d86103733660046114ef565b6001600160a01b03918216600090815260016020908152604080832093909416825291909152205490565b6101d86103ac36600461141c565b610cde565b6102246103bf36600461141c565b610d30565b6101d86103d236600461141c565b610d6e565b6060600380546103e690611522565b80601f016020809104026020016040519081016040528092919081815260200182805461041290611522565b801561045f5780601f106104345761010080835404028352916020019161045f565b820191906000526020600020905b81548152906001019060200180831161044257829003601f168201915b5050505050905090565b600033610477818585610dff565b60019150505b92915050565b600033610491858285610e11565b61049c858585610e8f565b506001949350505050565b6104af610eee565b600081116105045760405162461bcd60e51b815260206004820152601f60248201527f436f6f6c646f776e206d7573742062652067726561746572207468616e20300060448201526064015b60405180910390fd5b60088190556040518181527f583d8b24c5439ab7d810e51e37e8db41ba66f1168fd7b752ceae0c7681c5272c906020015b60405180910390a150565b6001600160a01b038116600090815260096020526040812054429082906105679083611572565b90506000600854821061057c5750600061058d565b8160085461058a9190611572565b90505b6001600160a01b03851660008181526009602090815260409182902054825187815291820152908101849052606081018390527f6ff563e240440df6164f82c5c410338bdb38fa63569b3389ba4103beb9474b3e9060800160405180910390a2949350505050565b6006546001600160a01b0316331461061f5760405162461bcd60e51b81526004016104fb90611585565b82811461063e5760405162461bcd60e51b81526004016104fb906115d1565b826106845760405162461bcd60e51b81526020600482015260166024820152754172726179732063616e6e6f7420626520656d70747960501b60448201526064016104fb565b60648311156106d15760405162461bcd60e51b815260206004820152601960248201527804d6178696d756d2062617463682073697a652069732031303603c1b60448201526064016104fb565b60005b8381101561089e5760008585838181106106f0576106f0611622565b9050602002016020810190610705919061141c565b6001600160a01b03160361075b5760405162461bcd60e51b815260206004820152601d60248201527f43616e6e6f74206275726e2066726f6d207a65726f206164647265737300000060448201526064016104fb565b600083838381811061076f5761076f611622565b90506020020135116107c35760405162461bcd60e51b815260206004820152601d60248201527f416d6f756e74206d7573742062652067726561746572207468616e203000000060448201526064016104fb565b61080b8585838181106107d8576107d8611622565b90506020020160208101906107ed919061141c565b8484848181106107ff576107ff611622565b90506020020135610f1b565b84848281811061081d5761081d611622565b9050602002016020810190610832919061141c565b6001600160a01b03167f4847840e886fff2fb51795fc333e74b8f187068bbd114005b146684e5d91025984848481811061086e5761086e611622565b9050602002013560405161088491815260200190565b60405180910390a28061089681611638565b9150506106d4565b5050505050565b6008546001600160a01b038216600090815260096020526040812054909142916108cf9190611651565b81106108de5750600092915050565b50506001600160a01b03166000908152600a602052604090205490565b6006546001600160a01b031633146109255760405162461bcd60e51b81526004016104fb90611585565b8281146109445760405162461bcd60e51b81526004016104fb906115d1565b8261098a5760405162461bcd60e51b81526020600482015260166024820152754172726179732063616e6e6f7420626520656d70747960501b60448201526064016104fb565b60648311156109d75760405162461bcd60e51b815260206004820152601960248201527804d6178696d756d2062617463682073697a652069732031303603c1b60448201526064016104fb565b60005b8381101561089e5760008585838181106109f6576109f6611622565b9050602002016020810190610a0b919061141c565b6001600160a01b031603610a615760405162461bcd60e51b815260206004820152601b60248201527f43616e6e6f74206d696e7420746f207a65726f2061646472657373000000000060448201526064016104fb565b6000838383818110610a7557610a75611622565b9050602002013511610ac95760405162461bcd60e51b815260206004820152601d60248201527f416d6f756e74206d7573742062652067726561746572207468616e203000000060448201526064016104fb565b610b11858583818110610ade57610ade611622565b9050602002016020810190610af3919061141c565b848484818110610b0557610b05611622565b90506020020135610f55565b610b59858583818110610b2657610b26611622565b9050602002016020810190610b3b919061141c565b848484818110610b4d57610b4d611622565b905060200201356110ac565b848482818110610b6b57610b6b611622565b9050602002016020810190610b80919061141c565b6001600160a01b03167f0f6798a560793a54c3bcfe86a93cde1e73087d944c0ea20544137d4121396885848484818110610bbc57610bbc611622565b90506020020135604051610bd291815260200190565b60405180910390a280610be481611638565b9150506109da565b610bf4610eee565b610bfe60006110e2565b565b6060600480546103e690611522565b610c17610eee565b60008111610c715760405162461bcd60e51b815260206004820152602160248201527f4d696e74206c696d6974206d7573742062652067726561746572207468616e206044820152600360fc1b60648201526084016104fb565b60078190556040518181527fc39a10b7490bc694c922bd6cbef1462b0cbf533e0e4bce081f71702069d12d1c90602001610535565b610cae610eee565b600680546001600160a01b0319166001600160a01b0392909216919091179055565b600033610477818585610e8f565b6001600160a01b03811660009081526009602052604081205442908290610d059083611572565b90506008548110610d1a575060009392505050565b80600854610d289190611572565b949350505050565b610d38610eee565b6001600160a01b038116610d6257604051631e4fbdf760e01b8152600060048201526024016104fb565b610d6b816110e2565b50565b6008546001600160a01b03821660009081526009602052604081205490914291610d989190611651565b8110610da8575050600754919050565b6007546001600160a01b0384166000908152600a602052604090205410610dd25750600092915050565b6001600160a01b0383166000908152600a6020526040902054600754610df89190611572565b9392505050565b610e0c8383836001611134565b505050565b6001600160a01b038381166000908152600160209081526040808320938616835292905220546000198114610e895781811015610e7a57604051637dc7a0d960e11b81526001600160a01b038416600482015260248101829052604481018390526064016104fb565b610e8984848484036000611134565b50505050565b6001600160a01b038316610eb957604051634b637e8f60e11b8152600060048201526024016104fb565b6001600160a01b038216610ee35760405163ec442f0560e01b8152600060048201526024016104fb565b610e0c838383611209565b6005546001600160a01b03163314610bfe5760405163118cdaa760e01b81523360048201526024016104fb565b6001600160a01b038216610f4557604051634b637e8f60e11b8152600060048201526024016104fb565b610f5182600083611209565b5050565b6008546001600160a01b0383166000908152600960205260409020544291610f7c91611651565b8110610f9c576001600160a01b0383166000908152600a60205260408120555b6007546001600160a01b0384166000908152600a6020526040902054610fc3908490611651565b11156110115760405162461bcd60e51b815260206004820152601960248201527f4d696e7420616d6f756e742065786365656473206c696d69740000000000000060448201526064016104fb565b6001600160a01b0383166000908152600960209081526040808320849055600a90915281208054849290611046908490611651565b90915550506001600160a01b038316600081815260096020908152604091829020546008548351868152928301919091528183015290517f89b7d5d8c1b14d45145162afe288a9af9c8d4c4d0305bb6c4f76f94e3e2c47af9181900360600190a2505050565b6001600160a01b0382166110d65760405163ec442f0560e01b8152600060048201526024016104fb565b610f5160008383611209565b600580546001600160a01b038381166001600160a01b0319831681179093556040519116919082907f8be0079c531659141344cd1fd0a4f28419497f9722a3daafe3b4186f6b6457e090600090a35050565b6001600160a01b03841661115e5760405163e602df0560e01b8152600060048201526024016104fb565b6001600160a01b03831661118857604051634a1406b160e11b8152600060048201526024016104fb565b6001600160a01b0380851660009081526001602090815260408083209387168352929052208290558015610e8957826001600160a01b0316846001600160a01b03167f8c5be1e5ebec7d5bd14f71427d1e84f3dd0314c0f7b2291e5b200ac8c7c3b925846040516111fb91815260200190565b60405180910390a350505050565b6001600160a01b0383166112345780600260008282546112299190611651565b909155506112a69050565b6001600160a01b038316600090815260208190526040902054818110156112875760405163391434e360e21b81526001600160a01b038516600482015260248101829052604481018390526064016104fb565b6001600160a01b03841660009081526020819052604090209082900390555b6001600160a01b0382166112c2576002805482900390556112e1565b6001600160a01b03821660009081526020819052604090208054820190555b816001600160a01b0316836001600160a01b03167fddf252ad1be2c89b69c2b068fc378daa952ba7f163c4a11628f55a4df523b3ef8360405161132691815260200190565b60405180910390a3505050565b600060208083528351808285015260005b8181101561136057858101830151858201604001528201611344565b506000604082860101526040601f19601f8301168501019250505092915050565b80356001600160a01b038116811461139857600080fd5b919050565b600080604083850312156113b057600080fd5b6113b983611381565b946020939093013593505050565b6000806000606084860312156113dc57600080fd5b6113e584611381565b92506113f360208501611381565b9150604084013590509250925092565b60006020828403121561141557600080fd5b5035919050565b60006020828403121561142e57600080fd5b610df882611381565b60008083601f84011261144957600080fd5b50813567ffffffffffffffff81111561146157600080fd5b6020830191508360208260051b850101111561147c57600080fd5b9250929050565b6000806000806040858703121561149957600080fd5b843567ffffffffffffffff808211156114b157600080fd5b6114bd88838901611437565b909650945060208701359150808211156114d657600080fd5b506114e387828801611437565b95989497509550505050565b6000806040838503121561150257600080fd5b61150b83611381565b915061151960208401611381565b90509250929050565b600181811c9082168061153657607f821691505b60208210810361155657634e487b7160e01b600052602260045260246000fd5b50919050565b634e487b7160e01b600052601160045260246000fd5b8181038181111561047d5761047d61155c565b6020808252602c908201527f4f6e6c7920525043204272656164204d696e7465722063616e2063616c6c207460408201526b3434b990333ab731ba34b7b760a11b606082015260800190565b60208082526031908201527f4164647265737320616e6420616d6f756e7420617272617973206d75737420626040820152700ca40e8d0ca40e6c2daca40d8cadccee8d607b1b606082015260800190565b634e487b7160e01b600052603260045260246000fd5b60006001820161164a5761164a61155c565b5060010190565b8082018082111561047d5761047d61155c56fea2646970667358221220bc2477f2f232d0ed4ed4045284326a792c5f2a6ada01be8772dd401bd2ac4bda64736f6c63430008140033",
  "devdoc": {
    "errors": {
      "ERC20InsufficientAllowance(address,uint256,uint256)": [
        {
          "details": "Indicates a failure with the `spender`s `allowance`. Used in transfers.",
          "params": {
            "allowance": "Amount of tokens a `spender` is allowed to operate with.",
            "needed": "Minimum amount required to perform a transfer.",
            "spender": "Address that may be allowed to operate on tokens without being their owner."
          }
        }
      ],
      "ERC20InsufficientBalance(address,uint256,uint256)": [
        {
          "details": "Indicates an error related to the current `balance` of a `sender`. Used in transfers.",
          "params": {
            "balance": "Current balance for the interacting account.",
            "needed": "Minimum amount required to perform a transfer.",
            "sender": "Address whose tokens are being transferred."
          }
        }
      ],
      "ERC20InvalidApprover(address)": [
        {
          "details": "Indicates a failure with the `approver` of a token to be approved. Used in approvals.",
          "params": {
            "approver": "Address initiating an approval operation."
          }
        }
      ],
      "ERC20InvalidReceiver(address)": [
        {
          "details": "Indicates a failure with the token `receiver`. Used in transfers.",
          "params": {
            "receiver": "Address to which tokens are being transferred."
          }
        }
      ],
      "ERC20InvalidSender(address)": [
        {
          "details": "Indicates a failure with the token `sender`. Used in transfers.",
          "params": {
            "sender": "Address whose tokens are being transferred."
          }
        }
      ],
      "ERC20InvalidSpender(address)": [
        {
          "details": "Indicates a failure with the `spender` to be approved. Used in approvals.",
          "params": {
            "spender": "Address that may be allowed to operate on tokens without being their owner."
          }
        }
      ],
      "OwnableInvalidOwner(address)": [
        {
          "details": "The owner is not a valid owner account. (eg. `address(0)`)"
        }
      ],
      "OwnableUnauthorizedAccount(address)": [
        {
          "details": "The caller account is not authorized to perform an operation."
        }
      ]
    },
    "events": {
      "Approval(address,address,uint256)": {
        "details": "Emitted when the allowance of a `spender` for an `owner` is set by a call to {approve}. `value` is the new allowance."
      },
      "Transfer(address,address,uint256)": {
        "details": "Emitted when `value` tokens are moved from one account (`from`) to another (`to`). Note that `value` may be zero."
      }
    },
    "kind": "dev",
    "methods": {
      "allowance(address,address)": {
        "details": "See {IERC20-allowance}."
      },
      "approve(address,uint256)": {
        "details": "See {IERC20-approve}. NOTE: If `value` is the maximum `uint256`, the allowance is not updated on `transferFrom`. This is semantically equivalent to an infinite approval. Requirements: - `spender` cannot be the zero address."
      },
      "balanceOf(address)": {
        "details": "See {IERC20-balanceOf}."
      },
      "decimals()": {
        "details": "Returns the number of decimals used to get its user representation. For example, if `decimals` equals `2`, a balance of `505` tokens should be displayed to a user as `5.05` (`505 / 10 ** 2`). Tokens usually opt for a value of 18, imitating the relationship between Ether and Wei. This is the default value returned by this function, unless it's overridden. NOTE: This information is only used for _display_ purposes: it in no way affects any of the arithmetic of the contract, including {IERC20-balanceOf} and {IERC20-transfer}."
      },
      "name()": {
        "details": "Returns the name of the token."
      },
      "owner()": {
        "details": "Returns the address of the current owner."
      },
      "renounceOwnership()": {
        "details": "Leaves the contract without owner. It will not be possible to call `onlyOwner` functions. Can only be called by the current owner. NOTE: Renouncing ownership will leave the contract without an owner, thereby disabling any functionality that is only available to the owner."
      },
      "symbol()": {
        "details": "Returns the symbol of the token, usually a shorter version of the name."
      },
      "totalSupply()": {
        "details": "See {IERC20-totalSupply}."
      },
      "transfer(address,uint256)": {
        "details": "See {IERC20-transfer}. Requirements: - `to` cannot be the zero address. - the caller must have a balance of at least `value`."
      },
      "transferFrom(address,address,uint256)": {
        "details": "See {IERC20-transferFrom}. Emits an {Approval} event indicating the updated allowance. This is not required by the EIP. See the note at the beginning of {ERC20}. NOTE: Does not update the allowance if the current allowance is the maximum `uint256`. Requirements: - `from` and `to` cannot be the zero address. - `from` must have a balance of at least `value`. - the caller must have allowance for ``from``'s tokens of at least `value`."
      },
      "transferOwnership(address)": {
        "details": "Transfers ownership of the contract to a new account (`newOwner`). Can only be called by the current owner."
      }
    },
    "version": 1
  },
  "userdoc": {
    "kind": "user",
    "methods": {},
    "version": 1
  },
  "storageLayout": {
    "storage": [
      {
        "astId": 307,
        "contract": "contracts/Bread.sol:Bread",
        "label": "_balances",
        "offset": 0,
        "slot": "0",
        "type": "t_mapping(t_address,t_uint256)"
      },
      {
        "astId": 313,
        "contract": "contracts/Bread.sol:Bread",
        "label": "_allowances",
        "offset": 0,
        "slot": "1",
        "type": "t_mapping(t_address,t_mapping(t_address,t_uint256))"
      },
      {
        "astId": 315,
        "contract": "contracts/Bread.sol:Bread",
        "label": "_totalSupply",
        "offset": 0,
        "slot": "2",
        "type": "t_uint256"
      },
      {
        "astId": 317,
        "contract": "contracts/Bread.sol:Bread",
        "label": "_name",
        "offset": 0,
        "slot": "3",
        "type": "t_string_storage"
      },
      {
        "astId": 319,
        "contract": "contracts/Bread.sol:Bread",
        "label": "_symbol",
        "offset": 0,
        "slot": "4",
        "type": "t_string_storage"
      },
      {
        "astId": 8,
        "contract": "contracts/Bread.sol:Bread",
        "label": "_owner",
        "offset": 0,
        "slot": "5",
        "type": "t_address"
      },
      {
        "astId": 985,
        "contract": "contracts/Bread.sol:Bread",
        "label": "rpcBreadMinterAddress",
        "offset": 0,
        "slot": "6",
        "type": "t_address"
      },
      {
        "astId": 992,
        "contract": "contracts/Bread.sol:Bread",
        "label": "mintLimit",
        "offset": 0,
        "slot": "7",
        "type": "t_uint256"
      },
      {
        "astId": 995,
        "contract": "contracts/Bread.sol:Bread",
        "label": "mintCooldown",
        "offset": 0,
        "slot": "8",
        "type": "t_uint256"
      },
      {
        "astId": 999,
        "contract": "contracts/Bread.sol:Bread",
        "label": "lastMintTime",
        "offset": 0,
        "slot": "9",
        "type": "t_mapping(t_address,t_uint256)"
      },
      {
        "astId": 1003,
        "contract": "contracts/Bread.sol:Bread",
        "label": "mintedInPeriod",
        "offset": 0,
        "slot": "10",
        "type": "t_mapping(t_address,t_uint256)"
      }
    ],
    "types": {
      "t_address": {
        "encoding": "inplace",
        "label": "address",
        "numberOfBytes": "20"
      },
      "t_mapping(t_address,t_mapping(t_address,t_uint256))": {
        "encoding": "mapping",
        "key": "t_address",
        "label": "mapping(address => mapping(address => uint256))",
        "numberOfBytes": "32",
        "value": "t_mapping(t_address,t_uint256)"
      },
      "t_mapping(t_address,t_uint256)": {
        "encoding": "mapping",
        "key": "t_address",
        "label": "mapping(address => uint256)",
        "numberOfBytes": "32",
        "value": "t_uint256"
      },
      "t_string_storage": {
        "encoding": "bytes",
        "label": "string",
        "numberOfBytes": "32"
      },
      "t_uint256": {
        "encoding": "inplace",
        "label": "uint256",
        "numberOfBytes": "32"
      }
    }
  }
}